{
	"data": {
		"bytecode": {
			"linkReferences": {},
			"object": "610180604052600c6101408190526b15539055551213d49256915160a21b61016090815262000032916000919062000251565b50600680546001600160a01b0319908116739ac64cc6e4415144c455bd8e4837fea55603e5c31790915560078054909116738a9424745056eb399fd19a0ec26a14316684e2741790553480156200008857600080fd5b5060405162003ae738038062003ae7833981810160405260c0811015620000ae57600080fd5b50805160208201516040808401516060850151608086015160a090960151600180546001600160a01b0319166001600160a01b038316908117909155935195969495929491939192909182917f2f658b440c35314f52658ea8a740e05b284cdc84dc9ae01e891f21b8933e7cad90600090a250600280546001600160a01b0319163317908190556040516001600160a01b0391909116906000907fea8258f2d9ddb679928cf34b78cf645b7feda9acc828e4dd82d014eaae270eba908290a36001600160a01b0386166200018157600080fd5b6001600160601b0319606087901b166080526001600160a01b038516620001a757600080fd5b6001600160601b0319606086901b1660a0526001600160a01b038416620001cd57600080fd5b6001600160601b0319606085901b1660c0526001600160a01b038316620001f357600080fd5b506001600160601b0319606092831b811660e0529181901b909116610120526001600160a01b03908116151560f81b61010052600654600580546001600160a01b031916919092161790555050605f601855506000601955620002fd565b828054600181600116156101000203166002900490600052602060002090601f016020900481019282620002895760008555620002d4565b82601f10620002a457805160ff1916838001178555620002d4565b82800160010185558215620002d4579182015b82811115620002d4578251825591602001919060010190620002b7565b50620002e2929150620002e6565b5090565b5b80821115620002e25760008155600101620002e7565b60805160601c60a05160601c60c05160601c60e05160601c6101005160f81c6101205160601c613711620003d660003980611fad528061214e5280612385525080611f7f528061211d52806126f4525080611cf5528061221752806122c35250806118a452806119255280611b675280611c49525080610a5e52806119545280611b0e5280611b385280611c185280611fdc5280612083528061217d52806122815250806117d45280611cd3528061224252806123d3528061273e52806129525280612ae35280612bc85280612cdd52506137116000f3fe6080604052600436106102385760003560e01c8062e6be7b1461023d578063016a42841461027257806301b88ee8146102a35780630505c8c9146102e8578063089208d8146102fd5780631694505e146103125780631a3d0068146103275780631e321a0f146103655780631f6ba53a146103985780631feed31f146103c25780632297da89146103f0578063247b8605146104055780632f3f470a1461044157806331503ec41461046a5780633268cc561461049d5780633ccfd60b146104b2578063451ee4a1146104c757806346f68ee9146105095780634cf088d91461053c578063507930ec1461055157806354848a6c146105845780635a96ac0a1461059957806361d027b3146105ae5780636e553f65146105c35780636faf1dcf146105ef578063759076e51461060457806377b81895146106195780637927ebf81461062e5780637a9e5e4b14610658578063813245ef1461068b5780638142dd1c146106a0578063844b5c7c146106b5578063904b3ece146106ca57806398fabd3a146106df578063a48c30ea146106f4578063b4abccba14610709578063bf7e214f1461073c578063c5332b7c14610751578063cd1234b314610766578063cea55f57146107bf578063cf5a4260146107d4578063d4d863ce146107fe578063d502562514610839578063d796906014610881578063d7ccfb0b14610896578063e0176de8146108ab578063e0bab4c4146108c0578063e392a262146108d5578063f5c2ab5b146108ea578063fc7b9c18146108ff575b600080fd5b34801561024957600080fd5b506102706004803603602081101561026057600080fd5b50356001600160a01b0316610914565b005b34801561027e57600080fd5b50610287610a5c565b604080516001600160a01b039092168252519081900360200190f35b3480156102af57600080fd5b506102d6600480360360208110156102c657600080fd5b50356001600160a01b0316610a80565b60408051918252519081900360200190f35b3480156102f457600080fd5b50610287610ad9565b34801561030957600080fd5b50610270610ae9565b34801561031e57600080fd5b50610287610b6e565b34801561033357600080fd5b506102706004803603608081101561034a57600080fd5b50803515159060208101359060408101359060600135610b7d565b34801561037157600080fd5b506102706004803603604081101561038857600080fd5b5060ff8135169060200135610d14565b3480156103a457600080fd5b50610270600480360360208110156103bb57600080fd5b5035610f65565b6102d6600480360360408110156103d857600080fd5b506001600160a01b0381351690602001351515611056565b3480156103fc57600080fd5b506102d6611227565b34801561041157600080fd5b506102706004803603608081101561042857600080fd5b508035906020810135906040810135906060013561122d565b34801561044d57600080fd5b506104566113d0565b604080519115158252519081900360200190f35b34801561047657600080fd5b506102706004803603602081101561048d57600080fd5b50356001600160a01b03166113e0565b3480156104a957600080fd5b50610287611501565b3480156104be57600080fd5b50610270611510565b3480156104d357600080fd5b506104dc61163d565b60408051951515865260208601949094528484019290925260608401526080830152519081900360a00190f35b34801561051557600080fd5b506102706004803603602081101561052c57600080fd5b50356001600160a01b0316611655565b34801561054857600080fd5b50610287611731565b34801561055d57600080fd5b506102d66004803603602081101561057457600080fd5b50356001600160a01b0316611740565b34801561059057600080fd5b506102876117d2565b3480156105a557600080fd5b506102706117f6565b3480156105ba57600080fd5b506102876118a2565b6102d6600480360360408110156105d957600080fd5b50803590602001356001600160a01b03166118c6565b3480156105fb57600080fd5b506102d6611df8565b34801561061057600080fd5b506102d6611dff565b34801561062557600080fd5b50610287611e05565b34801561063a57600080fd5b506102d66004803603602081101561065157600080fd5b5035611e14565b34801561066457600080fd5b506102706004803603602081101561067b57600080fd5b50356001600160a01b0316611e3a565b34801561069757600080fd5b506102d6611f70565b3480156106ac57600080fd5b506102d6611f76565b3480156106c157600080fd5b506102d6611f7b565b3480156106d657600080fd5b506102d6612119565b3480156106eb57600080fd5b50610287612215565b34801561070057600080fd5b506102d6612239565b34801561071557600080fd5b506104566004803603602081101561072c57600080fd5b50356001600160a01b031661223e565b34801561074857600080fd5b50610287612374565b34801561075d57600080fd5b50610287612383565b34801561077257600080fd5b506107996004803603602081101561078957600080fd5b50356001600160a01b03166123a7565b604080519485526020850193909352838301919091526060830152519081900360800190f35b3480156107cb57600080fd5b506102d66123ce565b3480156107e057600080fd5b50610270600480360360208110156107f757600080fd5b5035612486565b34801561080a57600080fd5b506102706004803603604081101561082157600080fd5b506001600160a01b038135169060200135151561257b565b34801561084557600080fd5b5061084e6126dd565b604080519687526020870195909552858501939093526060850191909152608084015260a0830152519081900360c00190f35b34801561088d57600080fd5b506104566126f2565b3480156108a257600080fd5b506102d6612716565b3480156108b757600080fd5b506102d661293e565b3480156108cc57600080fd5b506102876129db565b3480156108e157600080fd5b506102d66129ea565b3480156108f657600080fd5b506102d6612a2f565b34801561090b57600080fd5b506102d6612a35565b600160009054906101000a90046001600160a01b03166001600160a01b0316630c340a246040518163ffffffff1660e01b815260040160206040518083038186803b15801561096257600080fd5b505afa158015610976573d6000803e3d6000fd5b505050506040513d602081101561098c57600080fd5b50516000906001600160a01b03163314610a395760405162461bcd60e51b8152602060048201908152825460026000196101006001841615020190911604602483018190529091829160449091019084908015610a2a5780601f106109ff57610100808354040283529160200191610a2a565b820191906000526020600020905b815481529060010190602001808311610a0d57829003601f168201915b50509250505060405180910390fd5b50600580546001600160a01b0319166001600160a01b0392909216919091179055565b7f000000000000000000000000000000000000000000000000000000000000000081565b600080610a8c83611740565b6001600160a01b0384166000908152601560205260409020549091506127108210610ab957809250610ad2565b610acf612710610ac98385612a3b565b90612a9b565b92505b5050919050565b6002546001600160a01b03165b90565b6002546001600160a01b03163314610b36576040805162461bcd60e51b8152602060048201819052602482015260008051602061366e833981519152604482015290519081900360640190fd5b6002546040516000916001600160a01b031690600080516020613536833981519152908390a3600280546001600160a01b0319169055565b6005546001600160a01b031681565b600160009054906101000a90046001600160a01b03166001600160a01b0316630c340a246040518163ffffffff1660e01b815260040160206040518083038186803b158015610bcb57600080fd5b505afa158015610bdf573d6000803e3d6000fd5b505050506040513d6020811015610bf557600080fd5b50516000906001600160a01b03163314610c685760405162461bcd60e51b8152602060048201908152825460026000196101006001841615020190911604602483018190529091829160449091019084908015610a2a5780601f106109ff57610100808354040283529160200191610a2a565b50600a54610c7f906103e890610ac9906019612a3b565b831115610cc9576040805162461bcd60e51b8152602060048201526013602482015272496e6372656d656e7420746f6f206c6172676560681b604482015290519081900360640190fd5b6040805160a08101825294151580865260208601859052908501839052606085018290524360809095018590526010805460ff19169091179055601192909255601255601355601455565b600160009054906101000a90046001600160a01b03166001600160a01b0316630c340a246040518163ffffffff1660e01b815260040160206040518083038186803b158015610d6257600080fd5b505afa158015610d76573d6000803e3d6000fd5b505050506040513d6020811015610d8c57600080fd5b50516000906001600160a01b03163314610dff5760405162461bcd60e51b8152602060048201908152825460026000196101006001841615020190911604602483018190529091829160449091019084908015610a2a5780601f106109ff57610100808354040283529160200191610a2a565b506000826003811115610e0e57fe5b1415610e5e576014811015610e545760405162461bcd60e51b815260040180806020018281038252602481526020018061368e6024913960400191505060405180910390fd5b600b819055610f61565b6001826003811115610e6c57fe5b1415610ed3576103e8811115610ec9576040805162461bcd60e51b815260206004820181905260248201527f5061796f75742063616e6e6f742062652061626f766520312070657263656e74604482015290519081900360640190fd5b600d819055610f61565b6002826003811115610ee157fe5b1415610f4757612710811115610f3d576040805162461bcd60e51b815260206004820152601c60248201527b111053c81999594818d85b9b9bdd08195e18d95959081c185e5bdd5d60221b604482015290519081900360640190fd5b600e819055610f61565b6003826003811115610f5557fe5b1415610f6157600f8190555b5050565b600160009054906101000a90046001600160a01b03166001600160a01b0316630c340a246040518163ffffffff1660e01b815260040160206040518083038186803b158015610fb357600080fd5b505afa158015610fc7573d6000803e3d6000fd5b505050506040513d6020811015610fdd57600080fd5b50516000906001600160a01b031633146110505760405162461bcd60e51b8152602060048201908152825460026000196101006001841615020190911604602483018190529091829160449091019084908015610a2a5780601f106109ff57610100808354040283529160200191610a2a565b50601855565b60006110606134fb565b506001600160a01b0383166000908152601560209081526040808320815160808101835281548152600182015493810193909352600281015491830191909152600301546060820152906110b385611740565b90506127108110611131576001600160a01b038516600081815260156020908152604080832083815560018101849055600281018490556003018390558551815190815291820192909252815160008051602061357c833981519152929181900390910190a261112885858460000151612ada565b92505050611221565b81516000906111489061271090610ac99085612a3b565b9050604051806080016040528061116c838660000151612dde90919063ffffffff16565b815260200161119661118b866040015143612dde90919063ffffffff16565b602087015190612dde565b8152436020808301919091526060808701516040938401526001600160a01b038a1660008181526015845284902085518082558685015160018301558686015160028301559590920151600390920191909155825185815291820193909352815160008051602061357c833981519152929181900390910190a261121b868683612ada565b93505050505b92915050565b60195481565b600160009054906101000a90046001600160a01b03166001600160a01b0316630c340a246040518163ffffffff1660e01b815260040160206040518083038186803b15801561127b57600080fd5b505afa15801561128f573d6000803e3d6000fd5b505050506040513d60208110156112a557600080fd5b50516000906001600160a01b031633146113185760405162461bcd60e51b8152602060048201908152825460026000196101006001841615020190911604602483018190529091829160449091019084908015610a2a5780601f106109ff57610100808354040283529160200191610a2a565b50600a541561136e576040805162461bcd60e51b815260206004820181905260248201527f426f6e6473206d75737420626520696e697469616c697a65642066726f6d2030604482015290519081900360640190fd5b6040805160c081018252601480825262023280602083018190529282018790526060820186905260036080830181905260a0909201859052600a55600b91909155600c94909455600d92909255600e92909255600f9190915560165543601755565b600954600160a01b900460ff1681565b600160009054906101000a90046001600160a01b03166001600160a01b0316630c340a246040518163ffffffff1660e01b815260040160206040518083038186803b15801561142e57600080fd5b505afa158015611442573d6000803e3d6000fd5b505050506040513d602081101561145857600080fd5b50516000906001600160a01b031633146114cb5760405162461bcd60e51b8152602060048201908152825460026000196101006001841615020190911604602483018190529091829160449091019084908015610a2a5780601f106109ff57610100808354040283529160200191610a2a565b506001600160a01b0381166114df57600080fd5b600480546001600160a01b0319166001600160a01b0392909216919091179055565b6006546001600160a01b031681565b600160009054906101000a90046001600160a01b03166001600160a01b0316630c340a246040518163ffffffff1660e01b815260040160206040518083038186803b15801561155e57600080fd5b505afa158015611572573d6000803e3d6000fd5b505050506040513d602081101561158857600080fd5b50516000906001600160a01b031633146115fb5760405162461bcd60e51b8152602060048201908152825460026000196101006001841615020190911604602483018190529091829160449091019084908015610a2a5780601f106109ff57610100808354040283529160200191610a2a565b5060045460405147916001600160a01b031690819083156108fc029084906000818181858888f19350505050158015611638573d6000803e3d6000fd5b505050565b60105460115460125460135460145460ff9094169385565b6002546001600160a01b031633146116a2576040805162461bcd60e51b8152602060048201819052602482015260008051602061366e833981519152604482015290519081900360640190fd5b6001600160a01b0381166116e75760405162461bcd60e51b81526004018080602001828103825260268152602001806135566026913960400191505060405180910390fd5b6002546040516001600160a01b0380841692169060008051602061353683398151915290600090a3600380546001600160a01b0319166001600160a01b0392909216919091179055565b6008546001600160a01b031681565b600061174a6134fb565b506001600160a01b038216600090815260156020908152604080832081516080810183528154815260018201549381019390935260028101549183018290526003015460608301529091906117a0904390612dde565b602083015190915080156117c5576117be81610ac984612710612a3b565b93506117ca565b600093505b505050919050565b7f000000000000000000000000000000000000000000000000000000000000000081565b6003546001600160a01b0316331461183f5760405162461bcd60e51b81526004018080602001828103825260228152602001806135e56022913960400191505060405180910390fd5b6003546002546040516001600160a01b0392831692909116907faa151555690c956fc3ea32f106bb9f119b5237a061eaa8557cff3e51e3792c8d90600090a3600354600280546001600160a01b0319166001600160a01b03909216919091179055565b7f000000000000000000000000000000000000000000000000000000000000000081565b60006001600160a01b038216611915576040805162461bcd60e51b815260206004820152600f60248201526e496e76616c6964206164647265737360881b604482015290519081900360640190fd5b600061191f611f7b565b905060007f00000000000000000000000000000000000000000000000000000000000000006001600160a01b0316631eec5a9a7f0000000000000000000000000000000000000000000000000000000000000000876040518363ffffffff1660e01b815260040180836001600160a01b031681526020018281526020019250505060206040518083038186803b1580156119b857600080fd5b505afa1580156119cc573d6000803e3d6000fd5b505050506040513d60208110156119e257600080fd5b5051905060006119f182611e14565b905062989680811015611a3c576040805162461bcd60e51b815260206004820152600e60248201526d109bdb99081d1bdbc81cdb585b1b60921b604482015290519081900360640190fd5b611a4461293e565b811115611a89576040805162461bcd60e51b815260206004820152600e60248201526d426f6e6420746f6f206c6172676560901b604482015290519081900360640190fd5b6000611aa9612710610ac9600a6004015485612a3b90919063ffffffff16565b9050818311611ae95760405162461bcd60e51b815260040180806020018281038252604981526020018061359c6049913960600191505060405180910390fd5b6000611aff82611af98686612dde565b90612dde565b9050611b366001600160a01b037f00000000000000000000000000000000000000000000000000000000000000001633308b612e20565b7f00000000000000000000000000000000000000000000000000000000000000006001600160a01b031663095ea7b37f00000000000000000000000000000000000000000000000000000000000000008a6040518363ffffffff1660e01b815260040180836001600160a01b0316815260200182815260200192505050602060405180830381600087803b158015611bcd57600080fd5b505af1158015611be1573d6000803e3d6000fd5b505050506040513d6020811015611bf757600080fd5b50506040805163bc157ac160e01b8152600481018a90526001600160a01b037f0000000000000000000000000000000000000000000000000000000000000000811660248301526044820184905291517f00000000000000000000000000000000000000000000000000000000000000009092169163bc157ac1916064808201926020929091908290030181600087803b158015611c9457600080fd5b505af1158015611ca8573d6000803e3d6000fd5b505050506040513d6020811015611cbe57600080fd5b50508115611d1a57611d1a6001600160a01b037f0000000000000000000000000000000000000000000000000000000000000000167f000000000000000000000000000000000000000000000000000000000000000084612e80565b604080516080810182526001600160a01b0389166000908152601560205291909120548190611d499086612ed2565b8152600b805460208084019190915243604080850182905260609485018b90526001600160a01b038d166000908152601584528190208651815592860151600184015585015160028301559390920151600390920191909155601980548b019055548691611db691612ed2565b604080518b8152905186917f1fec6dc81f140574bf43f6b1e420ae1dd47928b9d57db8cbd7b8611063b85ae5919081900360200190a450909695505050505050565b6202328081565b60165490565b6009546001600160a01b031681565b6000611221662386f26fc10000610ac9611e3585611e30612716565b612f2a565b613072565b600160009054906101000a90046001600160a01b03166001600160a01b0316630c340a246040518163ffffffff1660e01b815260040160206040518083038186803b158015611e8857600080fd5b505afa158015611e9c573d6000803e3d6000fd5b505050506040513d6020811015611eb257600080fd5b50516000906001600160a01b03163314611f255760405162461bcd60e51b8152602060048201908152825460026000196101006001841615020190911604602483018190529091829160449091019084908015610a2a5780601f106109ff57610100808354040283529160200191610a2a565b50600180546001600160a01b0319166001600160a01b0383169081179091556040517f2f658b440c35314f52658ea8a740e05b284cdc84dc9ae01e891f21b8933e7cad90600090a250565b60185481565b601481565b60007f000000000000000000000000000000000000000000000000000000000000000015612079576120726064610ac97f00000000000000000000000000000000000000000000000000000000000000006001600160a01b03166332da80a37f00000000000000000000000000000000000000000000000000000000000000006040518263ffffffff1660e01b815260040180826001600160a01b0316815260200191505060206040518083038186803b15801561203857600080fd5b505afa15801561204c573d6000803e3d6000fd5b505050506040513d602081101561206257600080fd5b505161206c612716565b90612a3b565b9050610ae6565b6121146064610ac97f00000000000000000000000000000000000000000000000000000000000000006001600160a01b031663313ce5676040518163ffffffff1660e01b815260040160206040518083038186803b1580156120da57600080fd5b505afa1580156120ee573d6000803e3d6000fd5b505050506040513d602081101561210457600080fd5b505160ff16600a0a61206c612716565b905090565b60007f00000000000000000000000000000000000000000000000000000000000000001561220d57612072633b9aca00610ac97f00000000000000000000000000000000000000000000000000000000000000006001600160a01b03166332da80a37f00000000000000000000000000000000000000000000000000000000000000006040518263ffffffff1660e01b815260040180826001600160a01b0316815260200191505060206040518083038186803b1580156121d957600080fd5b505afa1580156121ed573d6000803e3d6000fd5b505050506040513d602081101561220357600080fd5b505161206c6123ce565b6120726123ce565b7f000000000000000000000000000000000000000000000000000000000000000081565b600381565b60007f00000000000000000000000000000000000000000000000000000000000000006001600160a01b0316826001600160a01b0316141561227f57600080fd5b7f00000000000000000000000000000000000000000000000000000000000000006001600160a01b0316826001600160a01b031614156122be57600080fd5b61236c7f0000000000000000000000000000000000000000000000000000000000000000836001600160a01b03166370a08231306040518263ffffffff1660e01b815260040180826001600160a01b0316815260200191505060206040518083038186803b15801561232f57600080fd5b505afa158015612343573d6000803e3d6000fd5b505050506040513d602081101561235957600080fd5b50516001600160a01b0385169190612e80565b506001919050565b6001546001600160a01b031681565b7f000000000000000000000000000000000000000000000000000000000000000081565b60156020526000908152604090208054600182015460028301546003909301549192909184565b6000807f00000000000000000000000000000000000000000000000000000000000000006001600160a01b03166318160ddd6040518163ffffffff1660e01b815260040160206040518083038186803b15801561242a57600080fd5b505afa15801561243e573d6000803e3d6000fd5b505050506040513d602081101561245457600080fd5b50519050612480670de0b6b3a7640000610ac9611e3561247a633b9aca0061206c611dff565b85612f2a565b91505090565b600160009054906101000a90046001600160a01b03166001600160a01b0316630c340a246040518163ffffffff1660e01b815260040160206040518083038186803b1580156124d457600080fd5b505afa1580156124e8573d6000803e3d6000fd5b505050506040513d60208110156124fe57600080fd5b50516000906001600160a01b031633146125715760405162461bcd60e51b8152602060048201908152825460026000196101006001841615020190911604602483018190529091829160449091019084908015610a2a5780601f106109ff57610100808354040283529160200191610a2a565b5060165543601755565b600160009054906101000a90046001600160a01b03166001600160a01b0316630c340a246040518163ffffffff1660e01b815260040160206040518083038186803b1580156125c957600080fd5b505afa1580156125dd573d6000803e3d6000fd5b505050506040513d60208110156125f357600080fd5b50516000906001600160a01b031633146126665760405162461bcd60e51b8152602060048201908152825460026000196101006001841615020190911604602483018190529091829160449091019084908015610a2a5780601f106109ff57610100808354040283529160200191610a2a565b506001600160a01b03821661267a57600080fd5b80156126af5760098054600160a01b60ff60a01b19909116176001600160a01b0319166001600160a01b038416179055610f61565b6009805460ff60a01b19169055600880546001600160a01b0384166001600160a01b03199091161790555050565b600a54600b54600c54600d54600e54600f5486565b7f000000000000000000000000000000000000000000000000000000000000000081565b60408051600280825260608083018452600093909291906020830190803683370190505090507f00000000000000000000000000000000000000000000000000000000000000008160008151811061276a57fe5b6001600160a01b03928316602091820292909201015260075482519116908290600190811061279557fe5b6001600160a01b039283166020918202929092018101919091526005546040805163d06ca61f60e01b815260016004820181815260248301938452875160448401528751606097959095169563d06ca61f95929489949293909260640191858101910280838360005b838110156128165781810151838201526020016127fe565b50505050905001935050505060006040518083038186803b15801561283a57600080fd5b505afa15801561284e573d6000803e3d6000fd5b505050506040513d6000823e601f3d908101601f19168201604052602081101561287757600080fd5b8101908080516040519392919084600160201b82111561289657600080fd5b9083019060208201858111156128ab57600080fd5b82518660208202830111600160201b821117156128c757600080fd5b82525081516020918201928201910280838360005b838110156128f45781810151838201526020016128dc565b505050509050016040525050509050612937633b9aca00610ac96018548460018751038151811061292157fe5b6020026020010151612a3b90919063ffffffff16565b9250505090565b6000612114620186a0610ac9600a600301547f00000000000000000000000000000000000000000000000000000000000000006001600160a01b03166318160ddd6040518163ffffffff1660e01b815260040160206040518083038186803b1580156129a957600080fd5b505afa1580156129bd573d6000803e3d6000fd5b505050506040513d60208110156129d357600080fd5b505190612a3b565b6007546001600160a01b031681565b600080612a0260175443612dde90919063ffffffff16565b600b54601654919250612a1991610ac99084612a3b565b9150601654821115612a2b5760165491505b5090565b60175481565b60165481565b600082612a4a57506000611221565b82820282848281612a5757fe5b0414612a945760405162461bcd60e51b815260040180806020018281038252602181526020018061364d6021913960400191505060405180910390fd5b9392505050565b6000612a9483836040518060400160405280601a815260200179536166654d6174683a206469766973696f6e206279207a65726f60301b81525061308a565b600082612b8a577f00000000000000000000000000000000000000000000000000000000000000006001600160a01b031663a9059cbb85846040518363ffffffff1660e01b815260040180836001600160a01b0316815260200182815260200192505050602060405180830381600087803b158015612b5857600080fd5b505af1158015612b6c573d6000803e3d6000fd5b505050506040513d6020811015612b8257600080fd5b50612dd79050565b600954600160a01b900460ff1615612cb1576009546040805163095ea7b360e01b81526001600160a01b0392831660048201526024810185905290517f00000000000000000000000000000000000000000000000000000000000000009092169163095ea7b3916044808201926020929091908290030181600087803b158015612c1357600080fd5b505af1158015612c27573d6000803e3d6000fd5b505050506040513d6020811015612c3d57600080fd5b505060095460408051637acb775760e01b8152600481018590526001600160a01b03878116602483015291519190921691637acb775791604480830192600092919082900301818387803b158015612c9457600080fd5b505af1158015612ca8573d6000803e3d6000fd5b50505050612dd7565b6008546040805163095ea7b360e01b81526001600160a01b0392831660048201526024810185905290517f00000000000000000000000000000000000000000000000000000000000000009092169163095ea7b3916044808201926020929091908290030181600087803b158015612d2857600080fd5b505af1158015612d3c573d6000803e3d6000fd5b505050506040513d6020811015612d5257600080fd5b50506008546040805163d7bac7b760e01b8152600481018590526001600160a01b0387811660248301529151919092169163d7bac7b79160448083019260209291908290030181600087803b158015612daa57600080fd5b505af1158015612dbe573d6000803e3d6000fd5b505050506040513d6020811015612dd457600080fd5b50505b5092915050565b6000612a9483836040518060400160405280601e81526020017f536166654d6174683a207375627472616374696f6e206f766572666c6f77000081525061312c565b604080516001600160a01b0380861660248301528416604482015260648082018490528251808303909101815260849091019091526020810180516001600160e01b03166323b872dd60e01b179052612e7a908590613186565b50505050565b604080516001600160a01b038416602482015260448082018490528251808303909101815260649091019091526020810180516001600160e01b031663a9059cbb60e01b179052611638908490613186565b600082820183811015612a94576040805162461bcd60e51b815260206004820152601b60248201527a536166654d6174683a206164646974696f6e206f766572666c6f7760281b604482015290519081900360640190fd5b612f32613523565b60008211612f715760405162461bcd60e51b81526004018080602001828103825260268152602001806136076026913960400191505060405180910390fd5b82612f8b5750604080516020810190915260008152611221565b6001600160901b03831161301557600082607085901b81612fa857fe5b0490506001600160e01b03811115612ff5576040805162461bcd60e51b815260206004820152601e602482015260008051602061362d833981519152604482015290519081900360640190fd5b6040518060200160405280826001600160e01b0316815250915050611221565b600061302684600160701b85613237565b90506001600160e01b03811115612ff5576040805162461bcd60e51b815260206004820152601e602482015260008051602061362d833981519152604482015290519081900360640190fd5b516612725dd1d243ab6001600160e01b039091160490565b600081836131165760405162461bcd60e51b81526004018080602001828103825283818151815260200191508051906020019080838360005b838110156130db5781810151838201526020016130c3565b50505050905090810190601f1680156131085780820380516001836020036101000a031916815260200191505b509250505060405180910390fd5b50600083858161312257fe5b0495945050505050565b6000818484111561317e5760405162461bcd60e51b81526020600482018181528351602484015283519092839260449091019190850190808383600083156130db5781810151838201526020016130c3565b505050900390565b60606131db826040518060400160405280602081526020017f5361666545524332303a206c6f772d6c6576656c2063616c6c206661696c6564815250856001600160a01b03166132d49092919063ffffffff16565b805190915015611638578080602001905160208110156131fa57600080fd5b50516116385760405162461bcd60e51b815260040180806020018281038252602a8152602001806136b2602a913960400191505060405180910390fd5b600080600061324686866132eb565b915091506000848061325457fe5b868809905082811115613268576001820391505b80830392508482106132be576040805162461bcd60e51b815260206004820152601a60248201527946756c6c4d6174683a3a6d756c4469763a206f766572666c6f7760301b604482015290519081900360640190fd5b6132c9838387613318565b979650505050505050565b60606132e38484600085613388565b949350505050565b6000808060001984860990508385029250828103915082811015613310576001820391505b509250929050565b6000818103821680838161332857fe5b04925080858161333457fe5b04945080816000038161334357fe5b60028581038087028203028087028203028087028203028087028203028087028203028087028203029586029003909402930460010193909302939093010292915050565b6060613393856134f5565b6133e4576040805162461bcd60e51b815260206004820152601d60248201527f416464726573733a2063616c6c20746f206e6f6e2d636f6e7472616374000000604482015290519081900360640190fd5b60006060866001600160a01b031685876040518082805190602001908083835b602083106134235780518252601f199092019160209182019101613404565b6001836020036101000a03801982511681845116808217855250505050505090500191505060006040518083038185875af1925050503d8060008114613485576040519150601f19603f3d011682016040523d82523d6000602084013e61348a565b606091505b5091509150811561349e5791506132e39050565b8051156134ae5780518082602001fd5b60405162461bcd60e51b81526020600482018181528651602484015286518793919283926044019190850190808383600083156130db5781810151838201526020016130c3565b3b151590565b6040518060800160405280600081526020016000815260200160008152602001600081525090565b6040805160208101909152600081529056feea8258f2d9ddb679928cf34b78cf645b7feda9acc828e4dd82d014eaae270eba4f776e61626c653a206e6577206f776e657220697320746865207a65726f206164647265737351c99f515c87b0d95ba97f616edd182e8f161c4932eac17c6fefe9dab58b77b12a2a2a2a2a2a202076616c7565206973206c657373207468616e207061796f7574207768696368206d65616e73207072696365206973206c657373207468616e2031202a2a2a2a2a204f776e61626c653a206d757374206265206e6577206f776e657220746f2070756c6c4669786564506f696e743a3a6672616374696f6e3a206469766973696f6e206279207a65726f4669786564506f696e743a3a6672616374696f6e3a206f766572666c6f770000536166654d6174683a206d756c7469706c69636174696f6e206f766572666c6f774f776e61626c653a2063616c6c6572206973206e6f7420746865206f776e657256657374696e67206d757374206265206c6f6e676572207468616e20333620686f7572735361666545524332303a204552433230206f7065726174696f6e20646964206e6f742073756363656564a2646970667358221220f058d368b38bd1e405a26cc6ab341e2ad93cd0f6eb1566efd509bde0c998da7f64736f6c63430007050033",
			"opcodes": "PUSH2 0x180 PUSH1 0x40 MSTORE PUSH1 0xC PUSH2 0x140 DUP2 SWAP1 MSTORE PUSH12 0x15539055551213D492569151 PUSH1 0xA2 SHL PUSH2 0x160 SWAP1 DUP2 MSTORE PUSH3 0x32 SWAP2 PUSH1 0x0 SWAP2 SWAP1 PUSH3 0x251 JUMP JUMPDEST POP PUSH1 0x6 DUP1 SLOAD PUSH1 0x1 PUSH1 0x1 PUSH1 0xA0 SHL SUB NOT SWAP1 DUP2 AND PUSH20 0x9AC64CC6E4415144C455BD8E4837FEA55603E5C3 OR SWAP1 SWAP2 SSTORE PUSH1 0x7 DUP1 SLOAD SWAP1 SWAP2 AND PUSH20 0x8A9424745056EB399FD19A0EC26A14316684E274 OR SWAP1 SSTORE CALLVALUE DUP1 ISZERO PUSH3 0x88 JUMPI PUSH1 0x0 DUP1 REVERT JUMPDEST POP PUSH1 0x40 MLOAD PUSH3 0x3AE7 CODESIZE SUB DUP1 PUSH3 0x3AE7 DUP4 CODECOPY DUP2 DUP2 ADD PUSH1 0x40 MSTORE PUSH1 0xC0 DUP2 LT ISZERO PUSH3 0xAE JUMPI PUSH1 0x0 DUP1 REVERT JUMPDEST POP DUP1 MLOAD PUSH1 0x20 DUP3 ADD MLOAD PUSH1 0x40 DUP1 DUP5 ADD MLOAD PUSH1 0x60 DUP6 ADD MLOAD PUSH1 0x80 DUP7 ADD MLOAD PUSH1 0xA0 SWAP1 SWAP7 ADD MLOAD PUSH1 0x1 DUP1 SLOAD PUSH1 0x1 PUSH1 0x1 PUSH1 0xA0 SHL SUB NOT AND PUSH1 0x1 PUSH1 0x1 PUSH1 0xA0 SHL SUB DUP4 AND SWAP1 DUP2 OR SWAP1 SWAP2 SSTORE SWAP4 MLOAD SWAP6 SWAP7 SWAP5 SWAP6 SWAP3 SWAP5 SWAP2 SWAP4 SWAP2 SWAP3 SWAP1 SWAP2 DUP3 SWAP2 PUSH32 0x2F658B440C35314F52658EA8A740E05B284CDC84DC9AE01E891F21B8933E7CAD SWAP1 PUSH1 0x0 SWAP1 LOG2 POP PUSH1 0x2 DUP1 SLOAD PUSH1 0x1 PUSH1 0x1 PUSH1 0xA0 SHL SUB NOT AND CALLER OR SWAP1 DUP2 SWAP1 SSTORE PUSH1 0x40 MLOAD PUSH1 0x1 PUSH1 0x1 PUSH1 0xA0 SHL SUB SWAP2 SWAP1 SWAP2 AND SWAP1 PUSH1 0x0 SWAP1 PUSH32 0xEA8258F2D9DDB679928CF34B78CF645B7FEDA9ACC828E4DD82D014EAAE270EBA SWAP1 DUP3 SWAP1 LOG3 PUSH1 0x1 PUSH1 0x1 PUSH1 0xA0 SHL SUB DUP7 AND PUSH3 0x181 JUMPI PUSH1 0x0 DUP1 REVERT JUMPDEST PUSH1 0x1 PUSH1 0x1 PUSH1 0x60 SHL SUB NOT PUSH1 0x60 DUP8 SWAP1 SHL AND PUSH1 0x80 MSTORE PUSH1 0x1 PUSH1 0x1 PUSH1 0xA0 SHL SUB DUP6 AND PUSH3 0x1A7 JUMPI PUSH1 0x0 DUP1 REVERT JUMPDEST PUSH1 0x1 PUSH1 0x1 PUSH1 0x60 SHL SUB NOT PUSH1 0x60 DUP7 SWAP1 SHL AND PUSH1 0xA0 MSTORE PUSH1 0x1 PUSH1 0x1 PUSH1 0xA0 SHL SUB DUP5 AND PUSH3 0x1CD JUMPI PUSH1 0x0 DUP1 REVERT JUMPDEST PUSH1 0x1 PUSH1 0x1 PUSH1 0x60 SHL SUB NOT PUSH1 0x60 DUP6 SWAP1 SHL AND PUSH1 0xC0 MSTORE PUSH1 0x1 PUSH1 0x1 PUSH1 0xA0 SHL SUB DUP4 AND PUSH3 0x1F3 JUMPI PUSH1 0x0 DUP1 REVERT JUMPDEST POP PUSH1 0x1 PUSH1 0x1 PUSH1 0x60 SHL SUB NOT PUSH1 0x60 SWAP3 DUP4 SHL DUP2 AND PUSH1 0xE0 MSTORE SWAP2 DUP2 SWAP1 SHL SWAP1 SWAP2 AND PUSH2 0x120 MSTORE PUSH1 0x1 PUSH1 0x1 PUSH1 0xA0 SHL SUB SWAP1 DUP2 AND ISZERO ISZERO PUSH1 0xF8 SHL PUSH2 0x100 MSTORE PUSH1 0x6 SLOAD PUSH1 0x5 DUP1 SLOAD PUSH1 0x1 PUSH1 0x1 PUSH1 0xA0 SHL SUB NOT AND SWAP2 SWAP1 SWAP3 AND OR SWAP1 SSTORE POP POP PUSH1 0x5F PUSH1 0x18 SSTORE POP PUSH1 0x0 PUSH1 0x19 SSTORE PUSH3 0x2FD JUMP JUMPDEST DUP3 DUP1 SLOAD PUSH1 0x1 DUP2 PUSH1 0x1 AND ISZERO PUSH2 0x100 MUL SUB AND PUSH1 0x2 SWAP1 DIV SWAP1 PUSH1 0x0 MSTORE PUSH1 0x20 PUSH1 0x0 KECCAK256 SWAP1 PUSH1 0x1F ADD PUSH1 0x20 SWAP1 DIV DUP2 ADD SWAP3 DUP3 PUSH3 0x289 JUMPI PUSH1 0x0 DUP6 SSTORE PUSH3 0x2D4 JUMP JUMPDEST DUP3 PUSH1 0x1F LT PUSH3 0x2A4 JUMPI DUP1 MLOAD PUSH1 0xFF NOT AND DUP4 DUP1 ADD OR DUP6 SSTORE PUSH3 0x2D4 JUMP JUMPDEST DUP3 DUP1 ADD PUSH1 0x1 ADD DUP6 SSTORE DUP3 ISZERO PUSH3 0x2D4 JUMPI SWAP2 DUP3 ADD JUMPDEST DUP3 DUP2 GT ISZERO PUSH3 0x2D4 JUMPI DUP3 MLOAD DUP3 SSTORE SWAP2 PUSH1 0x20 ADD SWAP2 SWAP1 PUSH1 0x1 ADD SWAP1 PUSH3 0x2B7 JUMP JUMPDEST POP PUSH3 0x2E2 SWAP3 SWAP2 POP PUSH3 0x2E6 JUMP JUMPDEST POP SWAP1 JUMP JUMPDEST JUMPDEST DUP1 DUP3 GT ISZERO PUSH3 0x2E2 JUMPI PUSH1 0x0 DUP2 SSTORE PUSH1 0x1 ADD PUSH3 0x2E7 JUMP JUMPDEST PUSH1 0x80 MLOAD PUSH1 0x60 SHR PUSH1 0xA0 MLOAD PUSH1 0x60 SHR PUSH1 0xC0 MLOAD PUSH1 0x60 SHR PUSH1 0xE0 MLOAD PUSH1 0x60 SHR PUSH2 0x100 MLOAD PUSH1 0xF8 SHR PUSH2 0x120 MLOAD PUSH1 0x60 SHR PUSH2 0x3711 PUSH3 0x3D6 PUSH1 0x0 CODECOPY DUP1 PUSH2 0x1FAD MSTORE DUP1 PUSH2 0x214E MSTORE DUP1 PUSH2 0x2385 MSTORE POP DUP1 PUSH2 0x1F7F MSTORE DUP1 PUSH2 0x211D MSTORE DUP1 PUSH2 0x26F4 MSTORE POP DUP1 PUSH2 0x1CF5 MSTORE DUP1 PUSH2 0x2217 MSTORE DUP1 PUSH2 0x22C3 MSTORE POP DUP1 PUSH2 0x18A4 MSTORE DUP1 PUSH2 0x1925 MSTORE DUP1 PUSH2 0x1B67 MSTORE DUP1 PUSH2 0x1C49 MSTORE POP DUP1 PUSH2 0xA5E MSTORE DUP1 PUSH2 0x1954 MSTORE DUP1 PUSH2 0x1B0E MSTORE DUP1 PUSH2 0x1B38 MSTORE DUP1 PUSH2 0x1C18 MSTORE DUP1 PUSH2 0x1FDC MSTORE DUP1 PUSH2 0x2083 MSTORE DUP1 PUSH2 0x217D MSTORE DUP1 PUSH2 0x2281 MSTORE POP DUP1 PUSH2 0x17D4 MSTORE DUP1 PUSH2 0x1CD3 MSTORE DUP1 PUSH2 0x2242 MSTORE DUP1 PUSH2 0x23D3 MSTORE DUP1 PUSH2 0x273E MSTORE DUP1 PUSH2 0x2952 MSTORE DUP1 PUSH2 0x2AE3 MSTORE DUP1 PUSH2 0x2BC8 MSTORE DUP1 PUSH2 0x2CDD MSTORE POP PUSH2 0x3711 PUSH1 0x0 RETURN INVALID PUSH1 0x80 PUSH1 0x40 MSTORE PUSH1 0x4 CALLDATASIZE LT PUSH2 0x238 JUMPI PUSH1 0x0 CALLDATALOAD PUSH1 0xE0 SHR DUP1 PUSH3 0xE6BE7B EQ PUSH2 0x23D JUMPI DUP1 PUSH4 0x16A4284 EQ PUSH2 0x272 JUMPI DUP1 PUSH4 0x1B88EE8 EQ PUSH2 0x2A3 JUMPI DUP1 PUSH4 0x505C8C9 EQ PUSH2 0x2E8 JUMPI DUP1 PUSH4 0x89208D8 EQ PUSH2 0x2FD JUMPI DUP1 PUSH4 0x1694505E EQ PUSH2 0x312 JUMPI DUP1 PUSH4 0x1A3D0068 EQ PUSH2 0x327 JUMPI DUP1 PUSH4 0x1E321A0F EQ PUSH2 0x365 JUMPI DUP1 PUSH4 0x1F6BA53A EQ PUSH2 0x398 JUMPI DUP1 PUSH4 0x1FEED31F EQ PUSH2 0x3C2 JUMPI DUP1 PUSH4 0x2297DA89 EQ PUSH2 0x3F0 JUMPI DUP1 PUSH4 0x247B8605 EQ PUSH2 0x405 JUMPI DUP1 PUSH4 0x2F3F470A EQ PUSH2 0x441 JUMPI DUP1 PUSH4 0x31503EC4 EQ PUSH2 0x46A JUMPI DUP1 PUSH4 0x3268CC56 EQ PUSH2 0x49D JUMPI DUP1 PUSH4 0x3CCFD60B EQ PUSH2 0x4B2 JUMPI DUP1 PUSH4 0x451EE4A1 EQ PUSH2 0x4C7 JUMPI DUP1 PUSH4 0x46F68EE9 EQ PUSH2 0x509 JUMPI DUP1 PUSH4 0x4CF088D9 EQ PUSH2 0x53C JUMPI DUP1 PUSH4 0x507930EC EQ PUSH2 0x551 JUMPI DUP1 PUSH4 0x54848A6C EQ PUSH2 0x584 JUMPI DUP1 PUSH4 0x5A96AC0A EQ PUSH2 0x599 JUMPI DUP1 PUSH4 0x61D027B3 EQ PUSH2 0x5AE JUMPI DUP1 PUSH4 0x6E553F65 EQ PUSH2 0x5C3 JUMPI DUP1 PUSH4 0x6FAF1DCF EQ PUSH2 0x5EF JUMPI DUP1 PUSH4 0x759076E5 EQ PUSH2 0x604 JUMPI DUP1 PUSH4 0x77B81895 EQ PUSH2 0x619 JUMPI DUP1 PUSH4 0x7927EBF8 EQ PUSH2 0x62E JUMPI DUP1 PUSH4 0x7A9E5E4B EQ PUSH2 0x658 JUMPI DUP1 PUSH4 0x813245EF EQ PUSH2 0x68B JUMPI DUP1 PUSH4 0x8142DD1C EQ PUSH2 0x6A0 JUMPI DUP1 PUSH4 0x844B5C7C EQ PUSH2 0x6B5 JUMPI DUP1 PUSH4 0x904B3ECE EQ PUSH2 0x6CA JUMPI DUP1 PUSH4 0x98FABD3A EQ PUSH2 0x6DF JUMPI DUP1 PUSH4 0xA48C30EA EQ PUSH2 0x6F4 JUMPI DUP1 PUSH4 0xB4ABCCBA EQ PUSH2 0x709 JUMPI DUP1 PUSH4 0xBF7E214F EQ PUSH2 0x73C JUMPI DUP1 PUSH4 0xC5332B7C EQ PUSH2 0x751 JUMPI DUP1 PUSH4 0xCD1234B3 EQ PUSH2 0x766 JUMPI DUP1 PUSH4 0xCEA55F57 EQ PUSH2 0x7BF JUMPI DUP1 PUSH4 0xCF5A4260 EQ PUSH2 0x7D4 JUMPI DUP1 PUSH4 0xD4D863CE EQ PUSH2 0x7FE JUMPI DUP1 PUSH4 0xD5025625 EQ PUSH2 0x839 JUMPI DUP1 PUSH4 0xD7969060 EQ PUSH2 0x881 JUMPI DUP1 PUSH4 0xD7CCFB0B EQ PUSH2 0x896 JUMPI DUP1 PUSH4 0xE0176DE8 EQ PUSH2 0x8AB JUMPI DUP1 PUSH4 0xE0BAB4C4 EQ PUSH2 0x8C0 JUMPI DUP1 PUSH4 0xE392A262 EQ PUSH2 0x8D5 JUMPI DUP1 PUSH4 0xF5C2AB5B EQ PUSH2 0x8EA JUMPI DUP1 PUSH4 0xFC7B9C18 EQ PUSH2 0x8FF JUMPI JUMPDEST PUSH1 0x0 DUP1 REVERT JUMPDEST CALLVALUE DUP1 ISZERO PUSH2 0x249 JUMPI PUSH1 0x0 DUP1 REVERT JUMPDEST POP PUSH2 0x270 PUSH1 0x4 DUP1 CALLDATASIZE SUB PUSH1 0x20 DUP2 LT ISZERO PUSH2 0x260 JUMPI PUSH1 0x0 DUP1 REVERT JUMPDEST POP CALLDATALOAD PUSH1 0x1 PUSH1 0x1 PUSH1 0xA0 SHL SUB AND PUSH2 0x914 JUMP JUMPDEST STOP JUMPDEST CALLVALUE DUP1 ISZERO PUSH2 0x27E JUMPI PUSH1 0x0 DUP1 REVERT JUMPDEST POP PUSH2 0x287 PUSH2 0xA5C JUMP JUMPDEST PUSH1 0x40 DUP1 MLOAD PUSH1 0x1 PUSH1 0x1 PUSH1 0xA0 SHL SUB SWAP1 SWAP3 AND DUP3 MSTORE MLOAD SWAP1 DUP2 SWAP1 SUB PUSH1 0x20 ADD SWAP1 RETURN JUMPDEST CALLVALUE DUP1 ISZERO PUSH2 0x2AF JUMPI PUSH1 0x0 DUP1 REVERT JUMPDEST POP PUSH2 0x2D6 PUSH1 0x4 DUP1 CALLDATASIZE SUB PUSH1 0x20 DUP2 LT ISZERO PUSH2 0x2C6 JUMPI PUSH1 0x0 DUP1 REVERT JUMPDEST POP CALLDATALOAD PUSH1 0x1 PUSH1 0x1 PUSH1 0xA0 SHL SUB AND PUSH2 0xA80 JUMP JUMPDEST PUSH1 0x40 DUP1 MLOAD SWAP2 DUP3 MSTORE MLOAD SWAP1 DUP2 SWAP1 SUB PUSH1 0x20 ADD SWAP1 RETURN JUMPDEST CALLVALUE DUP1 ISZERO PUSH2 0x2F4 JUMPI PUSH1 0x0 DUP1 REVERT JUMPDEST POP PUSH2 0x287 PUSH2 0xAD9 JUMP JUMPDEST CALLVALUE DUP1 ISZERO PUSH2 0x309 JUMPI PUSH1 0x0 DUP1 REVERT JUMPDEST POP PUSH2 0x270 PUSH2 0xAE9 JUMP JUMPDEST CALLVALUE DUP1 ISZERO PUSH2 0x31E JUMPI PUSH1 0x0 DUP1 REVERT JUMPDEST POP PUSH2 0x287 PUSH2 0xB6E JUMP JUMPDEST CALLVALUE DUP1 ISZERO PUSH2 0x333 JUMPI PUSH1 0x0 DUP1 REVERT JUMPDEST POP PUSH2 0x270 PUSH1 0x4 DUP1 CALLDATASIZE SUB PUSH1 0x80 DUP2 LT ISZERO PUSH2 0x34A JUMPI PUSH1 0x0 DUP1 REVERT JUMPDEST POP DUP1 CALLDATALOAD ISZERO ISZERO SWAP1 PUSH1 0x20 DUP2 ADD CALLDATALOAD SWAP1 PUSH1 0x40 DUP2 ADD CALLDATALOAD SWAP1 PUSH1 0x60 ADD CALLDATALOAD PUSH2 0xB7D JUMP JUMPDEST CALLVALUE DUP1 ISZERO PUSH2 0x371 JUMPI PUSH1 0x0 DUP1 REVERT JUMPDEST POP PUSH2 0x270 PUSH1 0x4 DUP1 CALLDATASIZE SUB PUSH1 0x40 DUP2 LT ISZERO PUSH2 0x388 JUMPI PUSH1 0x0 DUP1 REVERT JUMPDEST POP PUSH1 0xFF DUP2 CALLDATALOAD AND SWAP1 PUSH1 0x20 ADD CALLDATALOAD PUSH2 0xD14 JUMP JUMPDEST CALLVALUE DUP1 ISZERO PUSH2 0x3A4 JUMPI PUSH1 0x0 DUP1 REVERT JUMPDEST POP PUSH2 0x270 PUSH1 0x4 DUP1 CALLDATASIZE SUB PUSH1 0x20 DUP2 LT ISZERO PUSH2 0x3BB JUMPI PUSH1 0x0 DUP1 REVERT JUMPDEST POP CALLDATALOAD PUSH2 0xF65 JUMP JUMPDEST PUSH2 0x2D6 PUSH1 0x4 DUP1 CALLDATASIZE SUB PUSH1 0x40 DUP2 LT ISZERO PUSH2 0x3D8 JUMPI PUSH1 0x0 DUP1 REVERT JUMPDEST POP PUSH1 0x1 PUSH1 0x1 PUSH1 0xA0 SHL SUB DUP2 CALLDATALOAD AND SWAP1 PUSH1 0x20 ADD CALLDATALOAD ISZERO ISZERO PUSH2 0x1056 JUMP JUMPDEST CALLVALUE DUP1 ISZERO PUSH2 0x3FC JUMPI PUSH1 0x0 DUP1 REVERT JUMPDEST POP PUSH2 0x2D6 PUSH2 0x1227 JUMP JUMPDEST CALLVALUE DUP1 ISZERO PUSH2 0x411 JUMPI PUSH1 0x0 DUP1 REVERT JUMPDEST POP PUSH2 0x270 PUSH1 0x4 DUP1 CALLDATASIZE SUB PUSH1 0x80 DUP2 LT ISZERO PUSH2 0x428 JUMPI PUSH1 0x0 DUP1 REVERT JUMPDEST POP DUP1 CALLDATALOAD SWAP1 PUSH1 0x20 DUP2 ADD CALLDATALOAD SWAP1 PUSH1 0x40 DUP2 ADD CALLDATALOAD SWAP1 PUSH1 0x60 ADD CALLDATALOAD PUSH2 0x122D JUMP JUMPDEST CALLVALUE DUP1 ISZERO PUSH2 0x44D JUMPI PUSH1 0x0 DUP1 REVERT JUMPDEST POP PUSH2 0x456 PUSH2 0x13D0 JUMP JUMPDEST PUSH1 0x40 DUP1 MLOAD SWAP2 ISZERO ISZERO DUP3 MSTORE MLOAD SWAP1 DUP2 SWAP1 SUB PUSH1 0x20 ADD SWAP1 RETURN JUMPDEST CALLVALUE DUP1 ISZERO PUSH2 0x476 JUMPI PUSH1 0x0 DUP1 REVERT JUMPDEST POP PUSH2 0x270 PUSH1 0x4 DUP1 CALLDATASIZE SUB PUSH1 0x20 DUP2 LT ISZERO PUSH2 0x48D JUMPI PUSH1 0x0 DUP1 REVERT JUMPDEST POP CALLDATALOAD PUSH1 0x1 PUSH1 0x1 PUSH1 0xA0 SHL SUB AND PUSH2 0x13E0 JUMP JUMPDEST CALLVALUE DUP1 ISZERO PUSH2 0x4A9 JUMPI PUSH1 0x0 DUP1 REVERT JUMPDEST POP PUSH2 0x287 PUSH2 0x1501 JUMP JUMPDEST CALLVALUE DUP1 ISZERO PUSH2 0x4BE JUMPI PUSH1 0x0 DUP1 REVERT JUMPDEST POP PUSH2 0x270 PUSH2 0x1510 JUMP JUMPDEST CALLVALUE DUP1 ISZERO PUSH2 0x4D3 JUMPI PUSH1 0x0 DUP1 REVERT JUMPDEST POP PUSH2 0x4DC PUSH2 0x163D JUMP JUMPDEST PUSH1 0x40 DUP1 MLOAD SWAP6 ISZERO ISZERO DUP7 MSTORE PUSH1 0x20 DUP7 ADD SWAP5 SWAP1 SWAP5 MSTORE DUP5 DUP5 ADD SWAP3 SWAP1 SWAP3 MSTORE PUSH1 0x60 DUP5 ADD MSTORE PUSH1 0x80 DUP4 ADD MSTORE MLOAD SWAP1 DUP2 SWAP1 SUB PUSH1 0xA0 ADD SWAP1 RETURN JUMPDEST CALLVALUE DUP1 ISZERO PUSH2 0x515 JUMPI PUSH1 0x0 DUP1 REVERT JUMPDEST POP PUSH2 0x270 PUSH1 0x4 DUP1 CALLDATASIZE SUB PUSH1 0x20 DUP2 LT ISZERO PUSH2 0x52C JUMPI PUSH1 0x0 DUP1 REVERT JUMPDEST POP CALLDATALOAD PUSH1 0x1 PUSH1 0x1 PUSH1 0xA0 SHL SUB AND PUSH2 0x1655 JUMP JUMPDEST CALLVALUE DUP1 ISZERO PUSH2 0x548 JUMPI PUSH1 0x0 DUP1 REVERT JUMPDEST POP PUSH2 0x287 PUSH2 0x1731 JUMP JUMPDEST CALLVALUE DUP1 ISZERO PUSH2 0x55D JUMPI PUSH1 0x0 DUP1 REVERT JUMPDEST POP PUSH2 0x2D6 PUSH1 0x4 DUP1 CALLDATASIZE SUB PUSH1 0x20 DUP2 LT ISZERO PUSH2 0x574 JUMPI PUSH1 0x0 DUP1 REVERT JUMPDEST POP CALLDATALOAD PUSH1 0x1 PUSH1 0x1 PUSH1 0xA0 SHL SUB AND PUSH2 0x1740 JUMP JUMPDEST CALLVALUE DUP1 ISZERO PUSH2 0x590 JUMPI PUSH1 0x0 DUP1 REVERT JUMPDEST POP PUSH2 0x287 PUSH2 0x17D2 JUMP JUMPDEST CALLVALUE DUP1 ISZERO PUSH2 0x5A5 JUMPI PUSH1 0x0 DUP1 REVERT JUMPDEST POP PUSH2 0x270 PUSH2 0x17F6 JUMP JUMPDEST CALLVALUE DUP1 ISZERO PUSH2 0x5BA JUMPI PUSH1 0x0 DUP1 REVERT JUMPDEST POP PUSH2 0x287 PUSH2 0x18A2 JUMP JUMPDEST PUSH2 0x2D6 PUSH1 0x4 DUP1 CALLDATASIZE SUB PUSH1 0x40 DUP2 LT ISZERO PUSH2 0x5D9 JUMPI PUSH1 0x0 DUP1 REVERT JUMPDEST POP DUP1 CALLDATALOAD SWAP1 PUSH1 0x20 ADD CALLDATALOAD PUSH1 0x1 PUSH1 0x1 PUSH1 0xA0 SHL SUB AND PUSH2 0x18C6 JUMP JUMPDEST CALLVALUE DUP1 ISZERO PUSH2 0x5FB JUMPI PUSH1 0x0 DUP1 REVERT JUMPDEST POP PUSH2 0x2D6 PUSH2 0x1DF8 JUMP JUMPDEST CALLVALUE DUP1 ISZERO PUSH2 0x610 JUMPI PUSH1 0x0 DUP1 REVERT JUMPDEST POP PUSH2 0x2D6 PUSH2 0x1DFF JUMP JUMPDEST CALLVALUE DUP1 ISZERO PUSH2 0x625 JUMPI PUSH1 0x0 DUP1 REVERT JUMPDEST POP PUSH2 0x287 PUSH2 0x1E05 JUMP JUMPDEST CALLVALUE DUP1 ISZERO PUSH2 0x63A JUMPI PUSH1 0x0 DUP1 REVERT JUMPDEST POP PUSH2 0x2D6 PUSH1 0x4 DUP1 CALLDATASIZE SUB PUSH1 0x20 DUP2 LT ISZERO PUSH2 0x651 JUMPI PUSH1 0x0 DUP1 REVERT JUMPDEST POP CALLDATALOAD PUSH2 0x1E14 JUMP JUMPDEST CALLVALUE DUP1 ISZERO PUSH2 0x664 JUMPI PUSH1 0x0 DUP1 REVERT JUMPDEST POP PUSH2 0x270 PUSH1 0x4 DUP1 CALLDATASIZE SUB PUSH1 0x20 DUP2 LT ISZERO PUSH2 0x67B JUMPI PUSH1 0x0 DUP1 REVERT JUMPDEST POP CALLDATALOAD PUSH1 0x1 PUSH1 0x1 PUSH1 0xA0 SHL SUB AND PUSH2 0x1E3A JUMP JUMPDEST CALLVALUE DUP1 ISZERO PUSH2 0x697 JUMPI PUSH1 0x0 DUP1 REVERT JUMPDEST POP PUSH2 0x2D6 PUSH2 0x1F70 JUMP JUMPDEST CALLVALUE DUP1 ISZERO PUSH2 0x6AC JUMPI PUSH1 0x0 DUP1 REVERT JUMPDEST POP PUSH2 0x2D6 PUSH2 0x1F76 JUMP JUMPDEST CALLVALUE DUP1 ISZERO PUSH2 0x6C1 JUMPI PUSH1 0x0 DUP1 REVERT JUMPDEST POP PUSH2 0x2D6 PUSH2 0x1F7B JUMP JUMPDEST CALLVALUE DUP1 ISZERO PUSH2 0x6D6 JUMPI PUSH1 0x0 DUP1 REVERT JUMPDEST POP PUSH2 0x2D6 PUSH2 0x2119 JUMP JUMPDEST CALLVALUE DUP1 ISZERO PUSH2 0x6EB JUMPI PUSH1 0x0 DUP1 REVERT JUMPDEST POP PUSH2 0x287 PUSH2 0x2215 JUMP JUMPDEST CALLVALUE DUP1 ISZERO PUSH2 0x700 JUMPI PUSH1 0x0 DUP1 REVERT JUMPDEST POP PUSH2 0x2D6 PUSH2 0x2239 JUMP JUMPDEST CALLVALUE DUP1 ISZERO PUSH2 0x715 JUMPI PUSH1 0x0 DUP1 REVERT JUMPDEST POP PUSH2 0x456 PUSH1 0x4 DUP1 CALLDATASIZE SUB PUSH1 0x20 DUP2 LT ISZERO PUSH2 0x72C JUMPI PUSH1 0x0 DUP1 REVERT JUMPDEST POP CALLDATALOAD PUSH1 0x1 PUSH1 0x1 PUSH1 0xA0 SHL SUB AND PUSH2 0x223E JUMP JUMPDEST CALLVALUE DUP1 ISZERO PUSH2 0x748 JUMPI PUSH1 0x0 DUP1 REVERT JUMPDEST POP PUSH2 0x287 PUSH2 0x2374 JUMP JUMPDEST CALLVALUE DUP1 ISZERO PUSH2 0x75D JUMPI PUSH1 0x0 DUP1 REVERT JUMPDEST POP PUSH2 0x287 PUSH2 0x2383 JUMP JUMPDEST CALLVALUE DUP1 ISZERO PUSH2 0x772 JUMPI PUSH1 0x0 DUP1 REVERT JUMPDEST POP PUSH2 0x799 PUSH1 0x4 DUP1 CALLDATASIZE SUB PUSH1 0x20 DUP2 LT ISZERO PUSH2 0x789 JUMPI PUSH1 0x0 DUP1 REVERT JUMPDEST POP CALLDATALOAD PUSH1 0x1 PUSH1 0x1 PUSH1 0xA0 SHL SUB AND PUSH2 0x23A7 JUMP JUMPDEST PUSH1 0x40 DUP1 MLOAD SWAP5 DUP6 MSTORE PUSH1 0x20 DUP6 ADD SWAP4 SWAP1 SWAP4 MSTORE DUP4 DUP4 ADD SWAP2 SWAP1 SWAP2 MSTORE PUSH1 0x60 DUP4 ADD MSTORE MLOAD SWAP1 DUP2 SWAP1 SUB PUSH1 0x80 ADD SWAP1 RETURN JUMPDEST CALLVALUE DUP1 ISZERO PUSH2 0x7CB JUMPI PUSH1 0x0 DUP1 REVERT JUMPDEST POP PUSH2 0x2D6 PUSH2 0x23CE JUMP JUMPDEST CALLVALUE DUP1 ISZERO PUSH2 0x7E0 JUMPI PUSH1 0x0 DUP1 REVERT JUMPDEST POP PUSH2 0x270 PUSH1 0x4 DUP1 CALLDATASIZE SUB PUSH1 0x20 DUP2 LT ISZERO PUSH2 0x7F7 JUMPI PUSH1 0x0 DUP1 REVERT JUMPDEST POP CALLDATALOAD PUSH2 0x2486 JUMP JUMPDEST CALLVALUE DUP1 ISZERO PUSH2 0x80A JUMPI PUSH1 0x0 DUP1 REVERT JUMPDEST POP PUSH2 0x270 PUSH1 0x4 DUP1 CALLDATASIZE SUB PUSH1 0x40 DUP2 LT ISZERO PUSH2 0x821 JUMPI PUSH1 0x0 DUP1 REVERT JUMPDEST POP PUSH1 0x1 PUSH1 0x1 PUSH1 0xA0 SHL SUB DUP2 CALLDATALOAD AND SWAP1 PUSH1 0x20 ADD CALLDATALOAD ISZERO ISZERO PUSH2 0x257B JUMP JUMPDEST CALLVALUE DUP1 ISZERO PUSH2 0x845 JUMPI PUSH1 0x0 DUP1 REVERT JUMPDEST POP PUSH2 0x84E PUSH2 0x26DD JUMP JUMPDEST PUSH1 0x40 DUP1 MLOAD SWAP7 DUP8 MSTORE PUSH1 0x20 DUP8 ADD SWAP6 SWAP1 SWAP6 MSTORE DUP6 DUP6 ADD SWAP4 SWAP1 SWAP4 MSTORE PUSH1 0x60 DUP6 ADD SWAP2 SWAP1 SWAP2 MSTORE PUSH1 0x80 DUP5 ADD MSTORE PUSH1 0xA0 DUP4 ADD MSTORE MLOAD SWAP1 DUP2 SWAP1 SUB PUSH1 0xC0 ADD SWAP1 RETURN JUMPDEST CALLVALUE DUP1 ISZERO PUSH2 0x88D JUMPI PUSH1 0x0 DUP1 REVERT JUMPDEST POP PUSH2 0x456 PUSH2 0x26F2 JUMP JUMPDEST CALLVALUE DUP1 ISZERO PUSH2 0x8A2 JUMPI PUSH1 0x0 DUP1 REVERT JUMPDEST POP PUSH2 0x2D6 PUSH2 0x2716 JUMP JUMPDEST CALLVALUE DUP1 ISZERO PUSH2 0x8B7 JUMPI PUSH1 0x0 DUP1 REVERT JUMPDEST POP PUSH2 0x2D6 PUSH2 0x293E JUMP JUMPDEST CALLVALUE DUP1 ISZERO PUSH2 0x8CC JUMPI PUSH1 0x0 DUP1 REVERT JUMPDEST POP PUSH2 0x287 PUSH2 0x29DB JUMP JUMPDEST CALLVALUE DUP1 ISZERO PUSH2 0x8E1 JUMPI PUSH1 0x0 DUP1 REVERT JUMPDEST POP PUSH2 0x2D6 PUSH2 0x29EA JUMP JUMPDEST CALLVALUE DUP1 ISZERO PUSH2 0x8F6 JUMPI PUSH1 0x0 DUP1 REVERT JUMPDEST POP PUSH2 0x2D6 PUSH2 0x2A2F JUMP JUMPDEST CALLVALUE DUP1 ISZERO PUSH2 0x90B JUMPI PUSH1 0x0 DUP1 REVERT JUMPDEST POP PUSH2 0x2D6 PUSH2 0x2A35 JUMP JUMPDEST PUSH1 0x1 PUSH1 0x0 SWAP1 SLOAD SWAP1 PUSH2 0x100 EXP SWAP1 DIV PUSH1 0x1 PUSH1 0x1 PUSH1 0xA0 SHL SUB AND PUSH1 0x1 PUSH1 0x1 PUSH1 0xA0 SHL SUB AND PUSH4 0xC340A24 PUSH1 0x40 MLOAD DUP2 PUSH4 0xFFFFFFFF AND PUSH1 0xE0 SHL DUP2 MSTORE PUSH1 0x4 ADD PUSH1 0x20 PUSH1 0x40 MLOAD DUP1 DUP4 SUB DUP2 DUP7 DUP1 EXTCODESIZE ISZERO DUP1 ISZERO PUSH2 0x962 JUMPI PUSH1 0x0 DUP1 REVERT JUMPDEST POP GAS STATICCALL ISZERO DUP1 ISZERO PUSH2 0x976 JUMPI RETURNDATASIZE PUSH1 0x0 DUP1 RETURNDATACOPY RETURNDATASIZE PUSH1 0x0 REVERT JUMPDEST POP POP POP POP PUSH1 0x40 MLOAD RETURNDATASIZE PUSH1 0x20 DUP2 LT ISZERO PUSH2 0x98C JUMPI PUSH1 0x0 DUP1 REVERT JUMPDEST POP MLOAD PUSH1 0x0 SWAP1 PUSH1 0x1 PUSH1 0x1 PUSH1 0xA0 SHL SUB AND CALLER EQ PUSH2 0xA39 JUMPI PUSH1 0x40 MLOAD PUSH3 0x461BCD PUSH1 0xE5 SHL DUP2 MSTORE PUSH1 0x20 PUSH1 0x4 DUP3 ADD SWAP1 DUP2 MSTORE DUP3 SLOAD PUSH1 0x2 PUSH1 0x0 NOT PUSH2 0x100 PUSH1 0x1 DUP5 AND ISZERO MUL ADD SWAP1 SWAP2 AND DIV PUSH1 0x24 DUP4 ADD DUP2 SWAP1 MSTORE SWAP1 SWAP2 DUP3 SWAP2 PUSH1 0x44 SWAP1 SWAP2 ADD SWAP1 DUP5 SWAP1 DUP1 ISZERO PUSH2 0xA2A JUMPI DUP1 PUSH1 0x1F LT PUSH2 0x9FF JUMPI PUSH2 0x100 DUP1 DUP4 SLOAD DIV MUL DUP4 MSTORE SWAP2 PUSH1 0x20 ADD SWAP2 PUSH2 0xA2A JUMP JUMPDEST DUP3 ADD SWAP2 SWAP1 PUSH1 0x0 MSTORE PUSH1 0x20 PUSH1 0x0 KECCAK256 SWAP1 JUMPDEST DUP2 SLOAD DUP2 MSTORE SWAP1 PUSH1 0x1 ADD SWAP1 PUSH1 0x20 ADD DUP1 DUP4 GT PUSH2 0xA0D JUMPI DUP3 SWAP1 SUB PUSH1 0x1F AND DUP3 ADD SWAP2 JUMPDEST POP POP SWAP3 POP POP POP PUSH1 0x40 MLOAD DUP1 SWAP2 SUB SWAP1 REVERT JUMPDEST POP PUSH1 0x5 DUP1 SLOAD PUSH1 0x1 PUSH1 0x1 PUSH1 0xA0 SHL SUB NOT AND PUSH1 0x1 PUSH1 0x1 PUSH1 0xA0 SHL SUB SWAP3 SWAP1 SWAP3 AND SWAP2 SWAP1 SWAP2 OR SWAP1 SSTORE JUMP JUMPDEST PUSH32 0x0 DUP2 JUMP JUMPDEST PUSH1 0x0 DUP1 PUSH2 0xA8C DUP4 PUSH2 0x1740 JUMP JUMPDEST PUSH1 0x1 PUSH1 0x1 PUSH1 0xA0 SHL SUB DUP5 AND PUSH1 0x0 SWAP1 DUP2 MSTORE PUSH1 0x15 PUSH1 0x20 MSTORE PUSH1 0x40 SWAP1 KECCAK256 SLOAD SWAP1 SWAP2 POP PUSH2 0x2710 DUP3 LT PUSH2 0xAB9 JUMPI DUP1 SWAP3 POP PUSH2 0xAD2 JUMP JUMPDEST PUSH2 0xACF PUSH2 0x2710 PUSH2 0xAC9 DUP4 DUP6 PUSH2 0x2A3B JUMP JUMPDEST SWAP1 PUSH2 0x2A9B JUMP JUMPDEST SWAP3 POP JUMPDEST POP POP SWAP2 SWAP1 POP JUMP JUMPDEST PUSH1 0x2 SLOAD PUSH1 0x1 PUSH1 0x1 PUSH1 0xA0 SHL SUB AND JUMPDEST SWAP1 JUMP JUMPDEST PUSH1 0x2 SLOAD PUSH1 0x1 PUSH1 0x1 PUSH1 0xA0 SHL SUB AND CALLER EQ PUSH2 0xB36 JUMPI PUSH1 0x40 DUP1 MLOAD PUSH3 0x461BCD PUSH1 0xE5 SHL DUP2 MSTORE PUSH1 0x20 PUSH1 0x4 DUP3 ADD DUP2 SWAP1 MSTORE PUSH1 0x24 DUP3 ADD MSTORE PUSH1 0x0 DUP1 MLOAD PUSH1 0x20 PUSH2 0x366E DUP4 CODECOPY DUP2 MLOAD SWAP2 MSTORE PUSH1 0x44 DUP3 ADD MSTORE SWAP1 MLOAD SWAP1 DUP2 SWAP1 SUB PUSH1 0x64 ADD SWAP1 REVERT JUMPDEST PUSH1 0x2 SLOAD PUSH1 0x40 MLOAD PUSH1 0x0 SWAP2 PUSH1 0x1 PUSH1 0x1 PUSH1 0xA0 SHL SUB AND SWAP1 PUSH1 0x0 DUP1 MLOAD PUSH1 0x20 PUSH2 0x3536 DUP4 CODECOPY DUP2 MLOAD SWAP2 MSTORE SWAP1 DUP4 SWAP1 LOG3 PUSH1 0x2 DUP1 SLOAD PUSH1 0x1 PUSH1 0x1 PUSH1 0xA0 SHL SUB NOT AND SWAP1 SSTORE JUMP JUMPDEST PUSH1 0x5 SLOAD PUSH1 0x1 PUSH1 0x1 PUSH1 0xA0 SHL SUB AND DUP2 JUMP JUMPDEST PUSH1 0x1 PUSH1 0x0 SWAP1 SLOAD SWAP1 PUSH2 0x100 EXP SWAP1 DIV PUSH1 0x1 PUSH1 0x1 PUSH1 0xA0 SHL SUB AND PUSH1 0x1 PUSH1 0x1 PUSH1 0xA0 SHL SUB AND PUSH4 0xC340A24 PUSH1 0x40 MLOAD DUP2 PUSH4 0xFFFFFFFF AND PUSH1 0xE0 SHL DUP2 MSTORE PUSH1 0x4 ADD PUSH1 0x20 PUSH1 0x40 MLOAD DUP1 DUP4 SUB DUP2 DUP7 DUP1 EXTCODESIZE ISZERO DUP1 ISZERO PUSH2 0xBCB JUMPI PUSH1 0x0 DUP1 REVERT JUMPDEST POP GAS STATICCALL ISZERO DUP1 ISZERO PUSH2 0xBDF JUMPI RETURNDATASIZE PUSH1 0x0 DUP1 RETURNDATACOPY RETURNDATASIZE PUSH1 0x0 REVERT JUMPDEST POP POP POP POP PUSH1 0x40 MLOAD RETURNDATASIZE PUSH1 0x20 DUP2 LT ISZERO PUSH2 0xBF5 JUMPI PUSH1 0x0 DUP1 REVERT JUMPDEST POP MLOAD PUSH1 0x0 SWAP1 PUSH1 0x1 PUSH1 0x1 PUSH1 0xA0 SHL SUB AND CALLER EQ PUSH2 0xC68 JUMPI PUSH1 0x40 MLOAD PUSH3 0x461BCD PUSH1 0xE5 SHL DUP2 MSTORE PUSH1 0x20 PUSH1 0x4 DUP3 ADD SWAP1 DUP2 MSTORE DUP3 SLOAD PUSH1 0x2 PUSH1 0x0 NOT PUSH2 0x100 PUSH1 0x1 DUP5 AND ISZERO MUL ADD SWAP1 SWAP2 AND DIV PUSH1 0x24 DUP4 ADD DUP2 SWAP1 MSTORE SWAP1 SWAP2 DUP3 SWAP2 PUSH1 0x44 SWAP1 SWAP2 ADD SWAP1 DUP5 SWAP1 DUP1 ISZERO PUSH2 0xA2A JUMPI DUP1 PUSH1 0x1F LT PUSH2 0x9FF JUMPI PUSH2 0x100 DUP1 DUP4 SLOAD DIV MUL DUP4 MSTORE SWAP2 PUSH1 0x20 ADD SWAP2 PUSH2 0xA2A JUMP JUMPDEST POP PUSH1 0xA SLOAD PUSH2 0xC7F SWAP1 PUSH2 0x3E8 SWAP1 PUSH2 0xAC9 SWAP1 PUSH1 0x19 PUSH2 0x2A3B JUMP JUMPDEST DUP4 GT ISZERO PUSH2 0xCC9 JUMPI PUSH1 0x40 DUP1 MLOAD PUSH3 0x461BCD PUSH1 0xE5 SHL DUP2 MSTORE PUSH1 0x20 PUSH1 0x4 DUP3 ADD MSTORE PUSH1 0x13 PUSH1 0x24 DUP3 ADD MSTORE PUSH19 0x496E6372656D656E7420746F6F206C61726765 PUSH1 0x68 SHL PUSH1 0x44 DUP3 ADD MSTORE SWAP1 MLOAD SWAP1 DUP2 SWAP1 SUB PUSH1 0x64 ADD SWAP1 REVERT JUMPDEST PUSH1 0x40 DUP1 MLOAD PUSH1 0xA0 DUP2 ADD DUP3 MSTORE SWAP5 ISZERO ISZERO DUP1 DUP7 MSTORE PUSH1 0x20 DUP7 ADD DUP6 SWAP1 MSTORE SWAP1 DUP6 ADD DUP4 SWAP1 MSTORE PUSH1 0x60 DUP6 ADD DUP3 SWAP1 MSTORE NUMBER PUSH1 0x80 SWAP1 SWAP6 ADD DUP6 SWAP1 MSTORE PUSH1 0x10 DUP1 SLOAD PUSH1 0xFF NOT AND SWAP1 SWAP2 OR SWAP1 SSTORE PUSH1 0x11 SWAP3 SWAP1 SWAP3 SSTORE PUSH1 0x12 SSTORE PUSH1 0x13 SSTORE PUSH1 0x14 SSTORE JUMP JUMPDEST PUSH1 0x1 PUSH1 0x0 SWAP1 SLOAD SWAP1 PUSH2 0x100 EXP SWAP1 DIV PUSH1 0x1 PUSH1 0x1 PUSH1 0xA0 SHL SUB AND PUSH1 0x1 PUSH1 0x1 PUSH1 0xA0 SHL SUB AND PUSH4 0xC340A24 PUSH1 0x40 MLOAD DUP2 PUSH4 0xFFFFFFFF AND PUSH1 0xE0 SHL DUP2 MSTORE PUSH1 0x4 ADD PUSH1 0x20 PUSH1 0x40 MLOAD DUP1 DUP4 SUB DUP2 DUP7 DUP1 EXTCODESIZE ISZERO DUP1 ISZERO PUSH2 0xD62 JUMPI PUSH1 0x0 DUP1 REVERT JUMPDEST POP GAS STATICCALL ISZERO DUP1 ISZERO PUSH2 0xD76 JUMPI RETURNDATASIZE PUSH1 0x0 DUP1 RETURNDATACOPY RETURNDATASIZE PUSH1 0x0 REVERT JUMPDEST POP POP POP POP PUSH1 0x40 MLOAD RETURNDATASIZE PUSH1 0x20 DUP2 LT ISZERO PUSH2 0xD8C JUMPI PUSH1 0x0 DUP1 REVERT JUMPDEST POP MLOAD PUSH1 0x0 SWAP1 PUSH1 0x1 PUSH1 0x1 PUSH1 0xA0 SHL SUB AND CALLER EQ PUSH2 0xDFF JUMPI PUSH1 0x40 MLOAD PUSH3 0x461BCD PUSH1 0xE5 SHL DUP2 MSTORE PUSH1 0x20 PUSH1 0x4 DUP3 ADD SWAP1 DUP2 MSTORE DUP3 SLOAD PUSH1 0x2 PUSH1 0x0 NOT PUSH2 0x100 PUSH1 0x1 DUP5 AND ISZERO MUL ADD SWAP1 SWAP2 AND DIV PUSH1 0x24 DUP4 ADD DUP2 SWAP1 MSTORE SWAP1 SWAP2 DUP3 SWAP2 PUSH1 0x44 SWAP1 SWAP2 ADD SWAP1 DUP5 SWAP1 DUP1 ISZERO PUSH2 0xA2A JUMPI DUP1 PUSH1 0x1F LT PUSH2 0x9FF JUMPI PUSH2 0x100 DUP1 DUP4 SLOAD DIV MUL DUP4 MSTORE SWAP2 PUSH1 0x20 ADD SWAP2 PUSH2 0xA2A JUMP JUMPDEST POP PUSH1 0x0 DUP3 PUSH1 0x3 DUP2 GT ISZERO PUSH2 0xE0E JUMPI INVALID JUMPDEST EQ ISZERO PUSH2 0xE5E JUMPI PUSH1 0x14 DUP2 LT ISZERO PUSH2 0xE54 JUMPI PUSH1 0x40 MLOAD PUSH3 0x461BCD PUSH1 0xE5 SHL DUP2 MSTORE PUSH1 0x4 ADD DUP1 DUP1 PUSH1 0x20 ADD DUP3 DUP2 SUB DUP3 MSTORE PUSH1 0x24 DUP2 MSTORE PUSH1 0x20 ADD DUP1 PUSH2 0x368E PUSH1 0x24 SWAP2 CODECOPY PUSH1 0x40 ADD SWAP2 POP POP PUSH1 0x40 MLOAD DUP1 SWAP2 SUB SWAP1 REVERT JUMPDEST PUSH1 0xB DUP2 SWAP1 SSTORE PUSH2 0xF61 JUMP JUMPDEST PUSH1 0x1 DUP3 PUSH1 0x3 DUP2 GT ISZERO PUSH2 0xE6C JUMPI INVALID JUMPDEST EQ ISZERO PUSH2 0xED3 JUMPI PUSH2 0x3E8 DUP2 GT ISZERO PUSH2 0xEC9 JUMPI PUSH1 0x40 DUP1 MLOAD PUSH3 0x461BCD PUSH1 0xE5 SHL DUP2 MSTORE PUSH1 0x20 PUSH1 0x4 DUP3 ADD DUP2 SWAP1 MSTORE PUSH1 0x24 DUP3 ADD MSTORE PUSH32 0x5061796F75742063616E6E6F742062652061626F766520312070657263656E74 PUSH1 0x44 DUP3 ADD MSTORE SWAP1 MLOAD SWAP1 DUP2 SWAP1 SUB PUSH1 0x64 ADD SWAP1 REVERT JUMPDEST PUSH1 0xD DUP2 SWAP1 SSTORE PUSH2 0xF61 JUMP JUMPDEST PUSH1 0x2 DUP3 PUSH1 0x3 DUP2 GT ISZERO PUSH2 0xEE1 JUMPI INVALID JUMPDEST EQ ISZERO PUSH2 0xF47 JUMPI PUSH2 0x2710 DUP2 GT ISZERO PUSH2 0xF3D JUMPI PUSH1 0x40 DUP1 MLOAD PUSH3 0x461BCD PUSH1 0xE5 SHL DUP2 MSTORE PUSH1 0x20 PUSH1 0x4 DUP3 ADD MSTORE PUSH1 0x1C PUSH1 0x24 DUP3 ADD MSTORE PUSH28 0x111053C81999594818D85B9B9BDD08195E18D95959081C185E5BDD5D PUSH1 0x22 SHL PUSH1 0x44 DUP3 ADD MSTORE SWAP1 MLOAD SWAP1 DUP2 SWAP1 SUB PUSH1 0x64 ADD SWAP1 REVERT JUMPDEST PUSH1 0xE DUP2 SWAP1 SSTORE PUSH2 0xF61 JUMP JUMPDEST PUSH1 0x3 DUP3 PUSH1 0x3 DUP2 GT ISZERO PUSH2 0xF55 JUMPI INVALID JUMPDEST EQ ISZERO PUSH2 0xF61 JUMPI PUSH1 0xF DUP2 SWAP1 SSTORE JUMPDEST POP POP JUMP JUMPDEST PUSH1 0x1 PUSH1 0x0 SWAP1 SLOAD SWAP1 PUSH2 0x100 EXP SWAP1 DIV PUSH1 0x1 PUSH1 0x1 PUSH1 0xA0 SHL SUB AND PUSH1 0x1 PUSH1 0x1 PUSH1 0xA0 SHL SUB AND PUSH4 0xC340A24 PUSH1 0x40 MLOAD DUP2 PUSH4 0xFFFFFFFF AND PUSH1 0xE0 SHL DUP2 MSTORE PUSH1 0x4 ADD PUSH1 0x20 PUSH1 0x40 MLOAD DUP1 DUP4 SUB DUP2 DUP7 DUP1 EXTCODESIZE ISZERO DUP1 ISZERO PUSH2 0xFB3 JUMPI PUSH1 0x0 DUP1 REVERT JUMPDEST POP GAS STATICCALL ISZERO DUP1 ISZERO PUSH2 0xFC7 JUMPI RETURNDATASIZE PUSH1 0x0 DUP1 RETURNDATACOPY RETURNDATASIZE PUSH1 0x0 REVERT JUMPDEST POP POP POP POP PUSH1 0x40 MLOAD RETURNDATASIZE PUSH1 0x20 DUP2 LT ISZERO PUSH2 0xFDD JUMPI PUSH1 0x0 DUP1 REVERT JUMPDEST POP MLOAD PUSH1 0x0 SWAP1 PUSH1 0x1 PUSH1 0x1 PUSH1 0xA0 SHL SUB AND CALLER EQ PUSH2 0x1050 JUMPI PUSH1 0x40 MLOAD PUSH3 0x461BCD PUSH1 0xE5 SHL DUP2 MSTORE PUSH1 0x20 PUSH1 0x4 DUP3 ADD SWAP1 DUP2 MSTORE DUP3 SLOAD PUSH1 0x2 PUSH1 0x0 NOT PUSH2 0x100 PUSH1 0x1 DUP5 AND ISZERO MUL ADD SWAP1 SWAP2 AND DIV PUSH1 0x24 DUP4 ADD DUP2 SWAP1 MSTORE SWAP1 SWAP2 DUP3 SWAP2 PUSH1 0x44 SWAP1 SWAP2 ADD SWAP1 DUP5 SWAP1 DUP1 ISZERO PUSH2 0xA2A JUMPI DUP1 PUSH1 0x1F LT PUSH2 0x9FF JUMPI PUSH2 0x100 DUP1 DUP4 SLOAD DIV MUL DUP4 MSTORE SWAP2 PUSH1 0x20 ADD SWAP2 PUSH2 0xA2A JUMP JUMPDEST POP PUSH1 0x18 SSTORE JUMP JUMPDEST PUSH1 0x0 PUSH2 0x1060 PUSH2 0x34FB JUMP JUMPDEST POP PUSH1 0x1 PUSH1 0x1 PUSH1 0xA0 SHL SUB DUP4 AND PUSH1 0x0 SWAP1 DUP2 MSTORE PUSH1 0x15 PUSH1 0x20 SWAP1 DUP2 MSTORE PUSH1 0x40 DUP1 DUP4 KECCAK256 DUP2 MLOAD PUSH1 0x80 DUP2 ADD DUP4 MSTORE DUP2 SLOAD DUP2 MSTORE PUSH1 0x1 DUP3 ADD SLOAD SWAP4 DUP2 ADD SWAP4 SWAP1 SWAP4 MSTORE PUSH1 0x2 DUP2 ADD SLOAD SWAP2 DUP4 ADD SWAP2 SWAP1 SWAP2 MSTORE PUSH1 0x3 ADD SLOAD PUSH1 0x60 DUP3 ADD MSTORE SWAP1 PUSH2 0x10B3 DUP6 PUSH2 0x1740 JUMP JUMPDEST SWAP1 POP PUSH2 0x2710 DUP2 LT PUSH2 0x1131 JUMPI PUSH1 0x1 PUSH1 0x1 PUSH1 0xA0 SHL SUB DUP6 AND PUSH1 0x0 DUP2 DUP2 MSTORE PUSH1 0x15 PUSH1 0x20 SWAP1 DUP2 MSTORE PUSH1 0x40 DUP1 DUP4 KECCAK256 DUP4 DUP2 SSTORE PUSH1 0x1 DUP2 ADD DUP5 SWAP1 SSTORE PUSH1 0x2 DUP2 ADD DUP5 SWAP1 SSTORE PUSH1 0x3 ADD DUP4 SWAP1 SSTORE DUP6 MLOAD DUP2 MLOAD SWAP1 DUP2 MSTORE SWAP2 DUP3 ADD SWAP3 SWAP1 SWAP3 MSTORE DUP2 MLOAD PUSH1 0x0 DUP1 MLOAD PUSH1 0x20 PUSH2 0x357C DUP4 CODECOPY DUP2 MLOAD SWAP2 MSTORE SWAP3 SWAP2 DUP2 SWAP1 SUB SWAP1 SWAP2 ADD SWAP1 LOG2 PUSH2 0x1128 DUP6 DUP6 DUP5 PUSH1 0x0 ADD MLOAD PUSH2 0x2ADA JUMP JUMPDEST SWAP3 POP POP POP PUSH2 0x1221 JUMP JUMPDEST DUP2 MLOAD PUSH1 0x0 SWAP1 PUSH2 0x1148 SWAP1 PUSH2 0x2710 SWAP1 PUSH2 0xAC9 SWAP1 DUP6 PUSH2 0x2A3B JUMP JUMPDEST SWAP1 POP PUSH1 0x40 MLOAD DUP1 PUSH1 0x80 ADD PUSH1 0x40 MSTORE DUP1 PUSH2 0x116C DUP4 DUP7 PUSH1 0x0 ADD MLOAD PUSH2 0x2DDE SWAP1 SWAP2 SWAP1 PUSH4 0xFFFFFFFF AND JUMP JUMPDEST DUP2 MSTORE PUSH1 0x20 ADD PUSH2 0x1196 PUSH2 0x118B DUP7 PUSH1 0x40 ADD MLOAD NUMBER PUSH2 0x2DDE SWAP1 SWAP2 SWAP1 PUSH4 0xFFFFFFFF AND JUMP JUMPDEST PUSH1 0x20 DUP8 ADD MLOAD SWAP1 PUSH2 0x2DDE JUMP JUMPDEST DUP2 MSTORE NUMBER PUSH1 0x20 DUP1 DUP4 ADD SWAP2 SWAP1 SWAP2 MSTORE PUSH1 0x60 DUP1 DUP8 ADD MLOAD PUSH1 0x40 SWAP4 DUP5 ADD MSTORE PUSH1 0x1 PUSH1 0x1 PUSH1 0xA0 SHL SUB DUP11 AND PUSH1 0x0 DUP2 DUP2 MSTORE PUSH1 0x15 DUP5 MSTORE DUP5 SWAP1 KECCAK256 DUP6 MLOAD DUP1 DUP3 SSTORE DUP7 DUP6 ADD MLOAD PUSH1 0x1 DUP4 ADD SSTORE DUP7 DUP7 ADD MLOAD PUSH1 0x2 DUP4 ADD SSTORE SWAP6 SWAP1 SWAP3 ADD MLOAD PUSH1 0x3 SWAP1 SWAP3 ADD SWAP2 SWAP1 SWAP2 SSTORE DUP3 MLOAD DUP6 DUP2 MSTORE SWAP2 DUP3 ADD SWAP4 SWAP1 SWAP4 MSTORE DUP2 MLOAD PUSH1 0x0 DUP1 MLOAD PUSH1 0x20 PUSH2 0x357C DUP4 CODECOPY DUP2 MLOAD SWAP2 MSTORE SWAP3 SWAP2 DUP2 SWAP1 SUB SWAP1 SWAP2 ADD SWAP1 LOG2 PUSH2 0x121B DUP7 DUP7 DUP4 PUSH2 0x2ADA JUMP JUMPDEST SWAP4 POP POP POP POP JUMPDEST SWAP3 SWAP2 POP POP JUMP JUMPDEST PUSH1 0x19 SLOAD DUP2 JUMP JUMPDEST PUSH1 0x1 PUSH1 0x0 SWAP1 SLOAD SWAP1 PUSH2 0x100 EXP SWAP1 DIV PUSH1 0x1 PUSH1 0x1 PUSH1 0xA0 SHL SUB AND PUSH1 0x1 PUSH1 0x1 PUSH1 0xA0 SHL SUB AND PUSH4 0xC340A24 PUSH1 0x40 MLOAD DUP2 PUSH4 0xFFFFFFFF AND PUSH1 0xE0 SHL DUP2 MSTORE PUSH1 0x4 ADD PUSH1 0x20 PUSH1 0x40 MLOAD DUP1 DUP4 SUB DUP2 DUP7 DUP1 EXTCODESIZE ISZERO DUP1 ISZERO PUSH2 0x127B JUMPI PUSH1 0x0 DUP1 REVERT JUMPDEST POP GAS STATICCALL ISZERO DUP1 ISZERO PUSH2 0x128F JUMPI RETURNDATASIZE PUSH1 0x0 DUP1 RETURNDATACOPY RETURNDATASIZE PUSH1 0x0 REVERT JUMPDEST POP POP POP POP PUSH1 0x40 MLOAD RETURNDATASIZE PUSH1 0x20 DUP2 LT ISZERO PUSH2 0x12A5 JUMPI PUSH1 0x0 DUP1 REVERT JUMPDEST POP MLOAD PUSH1 0x0 SWAP1 PUSH1 0x1 PUSH1 0x1 PUSH1 0xA0 SHL SUB AND CALLER EQ PUSH2 0x1318 JUMPI PUSH1 0x40 MLOAD PUSH3 0x461BCD PUSH1 0xE5 SHL DUP2 MSTORE PUSH1 0x20 PUSH1 0x4 DUP3 ADD SWAP1 DUP2 MSTORE DUP3 SLOAD PUSH1 0x2 PUSH1 0x0 NOT PUSH2 0x100 PUSH1 0x1 DUP5 AND ISZERO MUL ADD SWAP1 SWAP2 AND DIV PUSH1 0x24 DUP4 ADD DUP2 SWAP1 MSTORE SWAP1 SWAP2 DUP3 SWAP2 PUSH1 0x44 SWAP1 SWAP2 ADD SWAP1 DUP5 SWAP1 DUP1 ISZERO PUSH2 0xA2A JUMPI DUP1 PUSH1 0x1F LT PUSH2 0x9FF JUMPI PUSH2 0x100 DUP1 DUP4 SLOAD DIV MUL DUP4 MSTORE SWAP2 PUSH1 0x20 ADD SWAP2 PUSH2 0xA2A JUMP JUMPDEST POP PUSH1 0xA SLOAD ISZERO PUSH2 0x136E JUMPI PUSH1 0x40 DUP1 MLOAD PUSH3 0x461BCD PUSH1 0xE5 SHL DUP2 MSTORE PUSH1 0x20 PUSH1 0x4 DUP3 ADD DUP2 SWAP1 MSTORE PUSH1 0x24 DUP3 ADD MSTORE PUSH32 0x426F6E6473206D75737420626520696E697469616C697A65642066726F6D2030 PUSH1 0x44 DUP3 ADD MSTORE SWAP1 MLOAD SWAP1 DUP2 SWAP1 SUB PUSH1 0x64 ADD SWAP1 REVERT JUMPDEST PUSH1 0x40 DUP1 MLOAD PUSH1 0xC0 DUP2 ADD DUP3 MSTORE PUSH1 0x14 DUP1 DUP3 MSTORE PUSH3 0x23280 PUSH1 0x20 DUP4 ADD DUP2 SWAP1 MSTORE SWAP3 DUP3 ADD DUP8 SWAP1 MSTORE PUSH1 0x60 DUP3 ADD DUP7 SWAP1 MSTORE PUSH1 0x3 PUSH1 0x80 DUP4 ADD DUP2 SWAP1 MSTORE PUSH1 0xA0 SWAP1 SWAP3 ADD DUP6 SWAP1 MSTORE PUSH1 0xA SSTORE PUSH1 0xB SWAP2 SWAP1 SWAP2 SSTORE PUSH1 0xC SWAP5 SWAP1 SWAP5 SSTORE PUSH1 0xD SWAP3 SWAP1 SWAP3 SSTORE PUSH1 0xE SWAP3 SWAP1 SWAP3 SSTORE PUSH1 0xF SWAP2 SWAP1 SWAP2 SSTORE PUSH1 0x16 SSTORE NUMBER PUSH1 0x17 SSTORE JUMP JUMPDEST PUSH1 0x9 SLOAD PUSH1 0x1 PUSH1 0xA0 SHL SWAP1 DIV PUSH1 0xFF AND DUP2 JUMP JUMPDEST PUSH1 0x1 PUSH1 0x0 SWAP1 SLOAD SWAP1 PUSH2 0x100 EXP SWAP1 DIV PUSH1 0x1 PUSH1 0x1 PUSH1 0xA0 SHL SUB AND PUSH1 0x1 PUSH1 0x1 PUSH1 0xA0 SHL SUB AND PUSH4 0xC340A24 PUSH1 0x40 MLOAD DUP2 PUSH4 0xFFFFFFFF AND PUSH1 0xE0 SHL DUP2 MSTORE PUSH1 0x4 ADD PUSH1 0x20 PUSH1 0x40 MLOAD DUP1 DUP4 SUB DUP2 DUP7 DUP1 EXTCODESIZE ISZERO DUP1 ISZERO PUSH2 0x142E JUMPI PUSH1 0x0 DUP1 REVERT JUMPDEST POP GAS STATICCALL ISZERO DUP1 ISZERO PUSH2 0x1442 JUMPI RETURNDATASIZE PUSH1 0x0 DUP1 RETURNDATACOPY RETURNDATASIZE PUSH1 0x0 REVERT JUMPDEST POP POP POP POP PUSH1 0x40 MLOAD RETURNDATASIZE PUSH1 0x20 DUP2 LT ISZERO PUSH2 0x1458 JUMPI PUSH1 0x0 DUP1 REVERT JUMPDEST POP MLOAD PUSH1 0x0 SWAP1 PUSH1 0x1 PUSH1 0x1 PUSH1 0xA0 SHL SUB AND CALLER EQ PUSH2 0x14CB JUMPI PUSH1 0x40 MLOAD PUSH3 0x461BCD PUSH1 0xE5 SHL DUP2 MSTORE PUSH1 0x20 PUSH1 0x4 DUP3 ADD SWAP1 DUP2 MSTORE DUP3 SLOAD PUSH1 0x2 PUSH1 0x0 NOT PUSH2 0x100 PUSH1 0x1 DUP5 AND ISZERO MUL ADD SWAP1 SWAP2 AND DIV PUSH1 0x24 DUP4 ADD DUP2 SWAP1 MSTORE SWAP1 SWAP2 DUP3 SWAP2 PUSH1 0x44 SWAP1 SWAP2 ADD SWAP1 DUP5 SWAP1 DUP1 ISZERO PUSH2 0xA2A JUMPI DUP1 PUSH1 0x1F LT PUSH2 0x9FF JUMPI PUSH2 0x100 DUP1 DUP4 SLOAD DIV MUL DUP4 MSTORE SWAP2 PUSH1 0x20 ADD SWAP2 PUSH2 0xA2A JUMP JUMPDEST POP PUSH1 0x1 PUSH1 0x1 PUSH1 0xA0 SHL SUB DUP2 AND PUSH2 0x14DF JUMPI PUSH1 0x0 DUP1 REVERT JUMPDEST PUSH1 0x4 DUP1 SLOAD PUSH1 0x1 PUSH1 0x1 PUSH1 0xA0 SHL SUB NOT AND PUSH1 0x1 PUSH1 0x1 PUSH1 0xA0 SHL SUB SWAP3 SWAP1 SWAP3 AND SWAP2 SWAP1 SWAP2 OR SWAP1 SSTORE JUMP JUMPDEST PUSH1 0x6 SLOAD PUSH1 0x1 PUSH1 0x1 PUSH1 0xA0 SHL SUB AND DUP2 JUMP JUMPDEST PUSH1 0x1 PUSH1 0x0 SWAP1 SLOAD SWAP1 PUSH2 0x100 EXP SWAP1 DIV PUSH1 0x1 PUSH1 0x1 PUSH1 0xA0 SHL SUB AND PUSH1 0x1 PUSH1 0x1 PUSH1 0xA0 SHL SUB AND PUSH4 0xC340A24 PUSH1 0x40 MLOAD DUP2 PUSH4 0xFFFFFFFF AND PUSH1 0xE0 SHL DUP2 MSTORE PUSH1 0x4 ADD PUSH1 0x20 PUSH1 0x40 MLOAD DUP1 DUP4 SUB DUP2 DUP7 DUP1 EXTCODESIZE ISZERO DUP1 ISZERO PUSH2 0x155E JUMPI PUSH1 0x0 DUP1 REVERT JUMPDEST POP GAS STATICCALL ISZERO DUP1 ISZERO PUSH2 0x1572 JUMPI RETURNDATASIZE PUSH1 0x0 DUP1 RETURNDATACOPY RETURNDATASIZE PUSH1 0x0 REVERT JUMPDEST POP POP POP POP PUSH1 0x40 MLOAD RETURNDATASIZE PUSH1 0x20 DUP2 LT ISZERO PUSH2 0x1588 JUMPI PUSH1 0x0 DUP1 REVERT JUMPDEST POP MLOAD PUSH1 0x0 SWAP1 PUSH1 0x1 PUSH1 0x1 PUSH1 0xA0 SHL SUB AND CALLER EQ PUSH2 0x15FB JUMPI PUSH1 0x40 MLOAD PUSH3 0x461BCD PUSH1 0xE5 SHL DUP2 MSTORE PUSH1 0x20 PUSH1 0x4 DUP3 ADD SWAP1 DUP2 MSTORE DUP3 SLOAD PUSH1 0x2 PUSH1 0x0 NOT PUSH2 0x100 PUSH1 0x1 DUP5 AND ISZERO MUL ADD SWAP1 SWAP2 AND DIV PUSH1 0x24 DUP4 ADD DUP2 SWAP1 MSTORE SWAP1 SWAP2 DUP3 SWAP2 PUSH1 0x44 SWAP1 SWAP2 ADD SWAP1 DUP5 SWAP1 DUP1 ISZERO PUSH2 0xA2A JUMPI DUP1 PUSH1 0x1F LT PUSH2 0x9FF JUMPI PUSH2 0x100 DUP1 DUP4 SLOAD DIV MUL DUP4 MSTORE SWAP2 PUSH1 0x20 ADD SWAP2 PUSH2 0xA2A JUMP JUMPDEST POP PUSH1 0x4 SLOAD PUSH1 0x40 MLOAD SELFBALANCE SWAP2 PUSH1 0x1 PUSH1 0x1 PUSH1 0xA0 SHL SUB AND SWAP1 DUP2 SWAP1 DUP4 ISZERO PUSH2 0x8FC MUL SWAP1 DUP5 SWAP1 PUSH1 0x0 DUP2 DUP2 DUP2 DUP6 DUP9 DUP9 CALL SWAP4 POP POP POP POP ISZERO DUP1 ISZERO PUSH2 0x1638 JUMPI RETURNDATASIZE PUSH1 0x0 DUP1 RETURNDATACOPY RETURNDATASIZE PUSH1 0x0 REVERT JUMPDEST POP POP POP JUMP JUMPDEST PUSH1 0x10 SLOAD PUSH1 0x11 SLOAD PUSH1 0x12 SLOAD PUSH1 0x13 SLOAD PUSH1 0x14 SLOAD PUSH1 0xFF SWAP1 SWAP5 AND SWAP4 DUP6 JUMP JUMPDEST PUSH1 0x2 SLOAD PUSH1 0x1 PUSH1 0x1 PUSH1 0xA0 SHL SUB AND CALLER EQ PUSH2 0x16A2 JUMPI PUSH1 0x40 DUP1 MLOAD PUSH3 0x461BCD PUSH1 0xE5 SHL DUP2 MSTORE PUSH1 0x20 PUSH1 0x4 DUP3 ADD DUP2 SWAP1 MSTORE PUSH1 0x24 DUP3 ADD MSTORE PUSH1 0x0 DUP1 MLOAD PUSH1 0x20 PUSH2 0x366E DUP4 CODECOPY DUP2 MLOAD SWAP2 MSTORE PUSH1 0x44 DUP3 ADD MSTORE SWAP1 MLOAD SWAP1 DUP2 SWAP1 SUB PUSH1 0x64 ADD SWAP1 REVERT JUMPDEST PUSH1 0x1 PUSH1 0x1 PUSH1 0xA0 SHL SUB DUP2 AND PUSH2 0x16E7 JUMPI PUSH1 0x40 MLOAD PUSH3 0x461BCD PUSH1 0xE5 SHL DUP2 MSTORE PUSH1 0x4 ADD DUP1 DUP1 PUSH1 0x20 ADD DUP3 DUP2 SUB DUP3 MSTORE PUSH1 0x26 DUP2 MSTORE PUSH1 0x20 ADD DUP1 PUSH2 0x3556 PUSH1 0x26 SWAP2 CODECOPY PUSH1 0x40 ADD SWAP2 POP POP PUSH1 0x40 MLOAD DUP1 SWAP2 SUB SWAP1 REVERT JUMPDEST PUSH1 0x2 SLOAD PUSH1 0x40 MLOAD PUSH1 0x1 PUSH1 0x1 PUSH1 0xA0 SHL SUB DUP1 DUP5 AND SWAP3 AND SWAP1 PUSH1 0x0 DUP1 MLOAD PUSH1 0x20 PUSH2 0x3536 DUP4 CODECOPY DUP2 MLOAD SWAP2 MSTORE SWAP1 PUSH1 0x0 SWAP1 LOG3 PUSH1 0x3 DUP1 SLOAD PUSH1 0x1 PUSH1 0x1 PUSH1 0xA0 SHL SUB NOT AND PUSH1 0x1 PUSH1 0x1 PUSH1 0xA0 SHL SUB SWAP3 SWAP1 SWAP3 AND SWAP2 SWAP1 SWAP2 OR SWAP1 SSTORE JUMP JUMPDEST PUSH1 0x8 SLOAD PUSH1 0x1 PUSH1 0x1 PUSH1 0xA0 SHL SUB AND DUP2 JUMP JUMPDEST PUSH1 0x0 PUSH2 0x174A PUSH2 0x34FB JUMP JUMPDEST POP PUSH1 0x1 PUSH1 0x1 PUSH1 0xA0 SHL SUB DUP3 AND PUSH1 0x0 SWAP1 DUP2 MSTORE PUSH1 0x15 PUSH1 0x20 SWAP1 DUP2 MSTORE PUSH1 0x40 DUP1 DUP4 KECCAK256 DUP2 MLOAD PUSH1 0x80 DUP2 ADD DUP4 MSTORE DUP2 SLOAD DUP2 MSTORE PUSH1 0x1 DUP3 ADD SLOAD SWAP4 DUP2 ADD SWAP4 SWAP1 SWAP4 MSTORE PUSH1 0x2 DUP2 ADD SLOAD SWAP2 DUP4 ADD DUP3 SWAP1 MSTORE PUSH1 0x3 ADD SLOAD PUSH1 0x60 DUP4 ADD MSTORE SWAP1 SWAP2 SWAP1 PUSH2 0x17A0 SWAP1 NUMBER SWAP1 PUSH2 0x2DDE JUMP JUMPDEST PUSH1 0x20 DUP4 ADD MLOAD SWAP1 SWAP2 POP DUP1 ISZERO PUSH2 0x17C5 JUMPI PUSH2 0x17BE DUP2 PUSH2 0xAC9 DUP5 PUSH2 0x2710 PUSH2 0x2A3B JUMP JUMPDEST SWAP4 POP PUSH2 0x17CA JUMP JUMPDEST PUSH1 0x0 SWAP4 POP JUMPDEST POP POP POP SWAP2 SWAP1 POP JUMP JUMPDEST PUSH32 0x0 DUP2 JUMP JUMPDEST PUSH1 0x3 SLOAD PUSH1 0x1 PUSH1 0x1 PUSH1 0xA0 SHL SUB AND CALLER EQ PUSH2 0x183F JUMPI PUSH1 0x40 MLOAD PUSH3 0x461BCD PUSH1 0xE5 SHL DUP2 MSTORE PUSH1 0x4 ADD DUP1 DUP1 PUSH1 0x20 ADD DUP3 DUP2 SUB DUP3 MSTORE PUSH1 0x22 DUP2 MSTORE PUSH1 0x20 ADD DUP1 PUSH2 0x35E5 PUSH1 0x22 SWAP2 CODECOPY PUSH1 0x40 ADD SWAP2 POP POP PUSH1 0x40 MLOAD DUP1 SWAP2 SUB SWAP1 REVERT JUMPDEST PUSH1 0x3 SLOAD PUSH1 0x2 SLOAD PUSH1 0x40 MLOAD PUSH1 0x1 PUSH1 0x1 PUSH1 0xA0 SHL SUB SWAP3 DUP4 AND SWAP3 SWAP1 SWAP2 AND SWAP1 PUSH32 0xAA151555690C956FC3EA32F106BB9F119B5237A061EAA8557CFF3E51E3792C8D SWAP1 PUSH1 0x0 SWAP1 LOG3 PUSH1 0x3 SLOAD PUSH1 0x2 DUP1 SLOAD PUSH1 0x1 PUSH1 0x1 PUSH1 0xA0 SHL SUB NOT AND PUSH1 0x1 PUSH1 0x1 PUSH1 0xA0 SHL SUB SWAP1 SWAP3 AND SWAP2 SWAP1 SWAP2 OR SWAP1 SSTORE JUMP JUMPDEST PUSH32 0x0 DUP2 JUMP JUMPDEST PUSH1 0x0 PUSH1 0x1 PUSH1 0x1 PUSH1 0xA0 SHL SUB DUP3 AND PUSH2 0x1915 JUMPI PUSH1 0x40 DUP1 MLOAD PUSH3 0x461BCD PUSH1 0xE5 SHL DUP2 MSTORE PUSH1 0x20 PUSH1 0x4 DUP3 ADD MSTORE PUSH1 0xF PUSH1 0x24 DUP3 ADD MSTORE PUSH15 0x496E76616C69642061646472657373 PUSH1 0x88 SHL PUSH1 0x44 DUP3 ADD MSTORE SWAP1 MLOAD SWAP1 DUP2 SWAP1 SUB PUSH1 0x64 ADD SWAP1 REVERT JUMPDEST PUSH1 0x0 PUSH2 0x191F PUSH2 0x1F7B JUMP JUMPDEST SWAP1 POP PUSH1 0x0 PUSH32 0x0 PUSH1 0x1 PUSH1 0x1 PUSH1 0xA0 SHL SUB AND PUSH4 0x1EEC5A9A PUSH32 0x0 DUP8 PUSH1 0x40 MLOAD DUP4 PUSH4 0xFFFFFFFF AND PUSH1 0xE0 SHL DUP2 MSTORE PUSH1 0x4 ADD DUP1 DUP4 PUSH1 0x1 PUSH1 0x1 PUSH1 0xA0 SHL SUB AND DUP2 MSTORE PUSH1 0x20 ADD DUP3 DUP2 MSTORE PUSH1 0x20 ADD SWAP3 POP POP POP PUSH1 0x20 PUSH1 0x40 MLOAD DUP1 DUP4 SUB DUP2 DUP7 DUP1 EXTCODESIZE ISZERO DUP1 ISZERO PUSH2 0x19B8 JUMPI PUSH1 0x0 DUP1 REVERT JUMPDEST POP GAS STATICCALL ISZERO DUP1 ISZERO PUSH2 0x19CC JUMPI RETURNDATASIZE PUSH1 0x0 DUP1 RETURNDATACOPY RETURNDATASIZE PUSH1 0x0 REVERT JUMPDEST POP POP POP POP PUSH1 0x40 MLOAD RETURNDATASIZE PUSH1 0x20 DUP2 LT ISZERO PUSH2 0x19E2 JUMPI PUSH1 0x0 DUP1 REVERT JUMPDEST POP MLOAD SWAP1 POP PUSH1 0x0 PUSH2 0x19F1 DUP3 PUSH2 0x1E14 JUMP JUMPDEST SWAP1 POP PUSH3 0x989680 DUP2 LT ISZERO PUSH2 0x1A3C JUMPI PUSH1 0x40 DUP1 MLOAD PUSH3 0x461BCD PUSH1 0xE5 SHL DUP2 MSTORE PUSH1 0x20 PUSH1 0x4 DUP3 ADD MSTORE PUSH1 0xE PUSH1 0x24 DUP3 ADD MSTORE PUSH14 0x109BDB99081D1BDBC81CDB585B1B PUSH1 0x92 SHL PUSH1 0x44 DUP3 ADD MSTORE SWAP1 MLOAD SWAP1 DUP2 SWAP1 SUB PUSH1 0x64 ADD SWAP1 REVERT JUMPDEST PUSH2 0x1A44 PUSH2 0x293E JUMP JUMPDEST DUP2 GT ISZERO PUSH2 0x1A89 JUMPI PUSH1 0x40 DUP1 MLOAD PUSH3 0x461BCD PUSH1 0xE5 SHL DUP2 MSTORE PUSH1 0x20 PUSH1 0x4 DUP3 ADD MSTORE PUSH1 0xE PUSH1 0x24 DUP3 ADD MSTORE PUSH14 0x426F6E6420746F6F206C61726765 PUSH1 0x90 SHL PUSH1 0x44 DUP3 ADD MSTORE SWAP1 MLOAD SWAP1 DUP2 SWAP1 SUB PUSH1 0x64 ADD SWAP1 REVERT JUMPDEST PUSH1 0x0 PUSH2 0x1AA9 PUSH2 0x2710 PUSH2 0xAC9 PUSH1 0xA PUSH1 0x4 ADD SLOAD DUP6 PUSH2 0x2A3B SWAP1 SWAP2 SWAP1 PUSH4 0xFFFFFFFF AND JUMP JUMPDEST SWAP1 POP DUP2 DUP4 GT PUSH2 0x1AE9 JUMPI PUSH1 0x40 MLOAD PUSH3 0x461BCD PUSH1 0xE5 SHL DUP2 MSTORE PUSH1 0x4 ADD DUP1 DUP1 PUSH1 0x20 ADD DUP3 DUP2 SUB DUP3 MSTORE PUSH1 0x49 DUP2 MSTORE PUSH1 0x20 ADD DUP1 PUSH2 0x359C PUSH1 0x49 SWAP2 CODECOPY PUSH1 0x60 ADD SWAP2 POP POP PUSH1 0x40 MLOAD DUP1 SWAP2 SUB SWAP1 REVERT JUMPDEST PUSH1 0x0 PUSH2 0x1AFF DUP3 PUSH2 0x1AF9 DUP7 DUP7 PUSH2 0x2DDE JUMP JUMPDEST SWAP1 PUSH2 0x2DDE JUMP JUMPDEST SWAP1 POP PUSH2 0x1B36 PUSH1 0x1 PUSH1 0x1 PUSH1 0xA0 SHL SUB PUSH32 0x0 AND CALLER ADDRESS DUP12 PUSH2 0x2E20 JUMP JUMPDEST PUSH32 0x0 PUSH1 0x1 PUSH1 0x1 PUSH1 0xA0 SHL SUB AND PUSH4 0x95EA7B3 PUSH32 0x0 DUP11 PUSH1 0x40 MLOAD DUP4 PUSH4 0xFFFFFFFF AND PUSH1 0xE0 SHL DUP2 MSTORE PUSH1 0x4 ADD DUP1 DUP4 PUSH1 0x1 PUSH1 0x1 PUSH1 0xA0 SHL SUB AND DUP2 MSTORE PUSH1 0x20 ADD DUP3 DUP2 MSTORE PUSH1 0x20 ADD SWAP3 POP POP POP PUSH1 0x20 PUSH1 0x40 MLOAD DUP1 DUP4 SUB DUP2 PUSH1 0x0 DUP8 DUP1 EXTCODESIZE ISZERO DUP1 ISZERO PUSH2 0x1BCD JUMPI PUSH1 0x0 DUP1 REVERT JUMPDEST POP GAS CALL ISZERO DUP1 ISZERO PUSH2 0x1BE1 JUMPI RETURNDATASIZE PUSH1 0x0 DUP1 RETURNDATACOPY RETURNDATASIZE PUSH1 0x0 REVERT JUMPDEST POP POP POP POP PUSH1 0x40 MLOAD RETURNDATASIZE PUSH1 0x20 DUP2 LT ISZERO PUSH2 0x1BF7 JUMPI PUSH1 0x0 DUP1 REVERT JUMPDEST POP POP PUSH1 0x40 DUP1 MLOAD PUSH4 0xBC157AC1 PUSH1 0xE0 SHL DUP2 MSTORE PUSH1 0x4 DUP2 ADD DUP11 SWAP1 MSTORE PUSH1 0x1 PUSH1 0x1 PUSH1 0xA0 SHL SUB PUSH32 0x0 DUP2 AND PUSH1 0x24 DUP4 ADD MSTORE PUSH1 0x44 DUP3 ADD DUP5 SWAP1 MSTORE SWAP2 MLOAD PUSH32 0x0 SWAP1 SWAP3 AND SWAP2 PUSH4 0xBC157AC1 SWAP2 PUSH1 0x64 DUP1 DUP3 ADD SWAP3 PUSH1 0x20 SWAP3 SWAP1 SWAP2 SWAP1 DUP3 SWAP1 SUB ADD DUP2 PUSH1 0x0 DUP8 DUP1 EXTCODESIZE ISZERO DUP1 ISZERO PUSH2 0x1C94 JUMPI PUSH1 0x0 DUP1 REVERT JUMPDEST POP GAS CALL ISZERO DUP1 ISZERO PUSH2 0x1CA8 JUMPI RETURNDATASIZE PUSH1 0x0 DUP1 RETURNDATACOPY RETURNDATASIZE PUSH1 0x0 REVERT JUMPDEST POP POP POP POP PUSH1 0x40 MLOAD RETURNDATASIZE PUSH1 0x20 DUP2 LT ISZERO PUSH2 0x1CBE JUMPI PUSH1 0x0 DUP1 REVERT JUMPDEST POP POP DUP2 ISZERO PUSH2 0x1D1A JUMPI PUSH2 0x1D1A PUSH1 0x1 PUSH1 0x1 PUSH1 0xA0 SHL SUB PUSH32 0x0 AND PUSH32 0x0 DUP5 PUSH2 0x2E80 JUMP JUMPDEST PUSH1 0x40 DUP1 MLOAD PUSH1 0x80 DUP2 ADD DUP3 MSTORE PUSH1 0x1 PUSH1 0x1 PUSH1 0xA0 SHL SUB DUP10 AND PUSH1 0x0 SWAP1 DUP2 MSTORE PUSH1 0x15 PUSH1 0x20 MSTORE SWAP2 SWAP1 SWAP2 KECCAK256 SLOAD DUP2 SWAP1 PUSH2 0x1D49 SWAP1 DUP7 PUSH2 0x2ED2 JUMP JUMPDEST DUP2 MSTORE PUSH1 0xB DUP1 SLOAD PUSH1 0x20 DUP1 DUP5 ADD SWAP2 SWAP1 SWAP2 MSTORE NUMBER PUSH1 0x40 DUP1 DUP6 ADD DUP3 SWAP1 MSTORE PUSH1 0x60 SWAP5 DUP6 ADD DUP12 SWAP1 MSTORE PUSH1 0x1 PUSH1 0x1 PUSH1 0xA0 SHL SUB DUP14 AND PUSH1 0x0 SWAP1 DUP2 MSTORE PUSH1 0x15 DUP5 MSTORE DUP2 SWAP1 KECCAK256 DUP7 MLOAD DUP2 SSTORE SWAP3 DUP7 ADD MLOAD PUSH1 0x1 DUP5 ADD SSTORE DUP6 ADD MLOAD PUSH1 0x2 DUP4 ADD SSTORE SWAP4 SWAP1 SWAP3 ADD MLOAD PUSH1 0x3 SWAP1 SWAP3 ADD SWAP2 SWAP1 SWAP2 SSTORE PUSH1 0x19 DUP1 SLOAD DUP12 ADD SWAP1 SSTORE SLOAD DUP7 SWAP2 PUSH2 0x1DB6 SWAP2 PUSH2 0x2ED2 JUMP JUMPDEST PUSH1 0x40 DUP1 MLOAD DUP12 DUP2 MSTORE SWAP1 MLOAD DUP7 SWAP2 PUSH32 0x1FEC6DC81F140574BF43F6B1E420AE1DD47928B9D57DB8CBD7B8611063B85AE5 SWAP2 SWAP1 DUP2 SWAP1 SUB PUSH1 0x20 ADD SWAP1 LOG4 POP SWAP1 SWAP7 SWAP6 POP POP POP POP POP POP JUMP JUMPDEST PUSH3 0x23280 DUP2 JUMP JUMPDEST PUSH1 0x16 SLOAD SWAP1 JUMP JUMPDEST PUSH1 0x9 SLOAD PUSH1 0x1 PUSH1 0x1 PUSH1 0xA0 SHL SUB AND DUP2 JUMP JUMPDEST PUSH1 0x0 PUSH2 0x1221 PUSH7 0x2386F26FC10000 PUSH2 0xAC9 PUSH2 0x1E35 DUP6 PUSH2 0x1E30 PUSH2 0x2716 JUMP JUMPDEST PUSH2 0x2F2A JUMP JUMPDEST PUSH2 0x3072 JUMP JUMPDEST PUSH1 0x1 PUSH1 0x0 SWAP1 SLOAD SWAP1 PUSH2 0x100 EXP SWAP1 DIV PUSH1 0x1 PUSH1 0x1 PUSH1 0xA0 SHL SUB AND PUSH1 0x1 PUSH1 0x1 PUSH1 0xA0 SHL SUB AND PUSH4 0xC340A24 PUSH1 0x40 MLOAD DUP2 PUSH4 0xFFFFFFFF AND PUSH1 0xE0 SHL DUP2 MSTORE PUSH1 0x4 ADD PUSH1 0x20 PUSH1 0x40 MLOAD DUP1 DUP4 SUB DUP2 DUP7 DUP1 EXTCODESIZE ISZERO DUP1 ISZERO PUSH2 0x1E88 JUMPI PUSH1 0x0 DUP1 REVERT JUMPDEST POP GAS STATICCALL ISZERO DUP1 ISZERO PUSH2 0x1E9C JUMPI RETURNDATASIZE PUSH1 0x0 DUP1 RETURNDATACOPY RETURNDATASIZE PUSH1 0x0 REVERT JUMPDEST POP POP POP POP PUSH1 0x40 MLOAD RETURNDATASIZE PUSH1 0x20 DUP2 LT ISZERO PUSH2 0x1EB2 JUMPI PUSH1 0x0 DUP1 REVERT JUMPDEST POP MLOAD PUSH1 0x0 SWAP1 PUSH1 0x1 PUSH1 0x1 PUSH1 0xA0 SHL SUB AND CALLER EQ PUSH2 0x1F25 JUMPI PUSH1 0x40 MLOAD PUSH3 0x461BCD PUSH1 0xE5 SHL DUP2 MSTORE PUSH1 0x20 PUSH1 0x4 DUP3 ADD SWAP1 DUP2 MSTORE DUP3 SLOAD PUSH1 0x2 PUSH1 0x0 NOT PUSH2 0x100 PUSH1 0x1 DUP5 AND ISZERO MUL ADD SWAP1 SWAP2 AND DIV PUSH1 0x24 DUP4 ADD DUP2 SWAP1 MSTORE SWAP1 SWAP2 DUP3 SWAP2 PUSH1 0x44 SWAP1 SWAP2 ADD SWAP1 DUP5 SWAP1 DUP1 ISZERO PUSH2 0xA2A JUMPI DUP1 PUSH1 0x1F LT PUSH2 0x9FF JUMPI PUSH2 0x100 DUP1 DUP4 SLOAD DIV MUL DUP4 MSTORE SWAP2 PUSH1 0x20 ADD SWAP2 PUSH2 0xA2A JUMP JUMPDEST POP PUSH1 0x1 DUP1 SLOAD PUSH1 0x1 PUSH1 0x1 PUSH1 0xA0 SHL SUB NOT AND PUSH1 0x1 PUSH1 0x1 PUSH1 0xA0 SHL SUB DUP4 AND SWAP1 DUP2 OR SWAP1 SWAP2 SSTORE PUSH1 0x40 MLOAD PUSH32 0x2F658B440C35314F52658EA8A740E05B284CDC84DC9AE01E891F21B8933E7CAD SWAP1 PUSH1 0x0 SWAP1 LOG2 POP JUMP JUMPDEST PUSH1 0x18 SLOAD DUP2 JUMP JUMPDEST PUSH1 0x14 DUP2 JUMP JUMPDEST PUSH1 0x0 PUSH32 0x0 ISZERO PUSH2 0x2079 JUMPI PUSH2 0x2072 PUSH1 0x64 PUSH2 0xAC9 PUSH32 0x0 PUSH1 0x1 PUSH1 0x1 PUSH1 0xA0 SHL SUB AND PUSH4 0x32DA80A3 PUSH32 0x0 PUSH1 0x40 MLOAD DUP3 PUSH4 0xFFFFFFFF AND PUSH1 0xE0 SHL DUP2 MSTORE PUSH1 0x4 ADD DUP1 DUP3 PUSH1 0x1 PUSH1 0x1 PUSH1 0xA0 SHL SUB AND DUP2 MSTORE PUSH1 0x20 ADD SWAP2 POP POP PUSH1 0x20 PUSH1 0x40 MLOAD DUP1 DUP4 SUB DUP2 DUP7 DUP1 EXTCODESIZE ISZERO DUP1 ISZERO PUSH2 0x2038 JUMPI PUSH1 0x0 DUP1 REVERT JUMPDEST POP GAS STATICCALL ISZERO DUP1 ISZERO PUSH2 0x204C JUMPI RETURNDATASIZE PUSH1 0x0 DUP1 RETURNDATACOPY RETURNDATASIZE PUSH1 0x0 REVERT JUMPDEST POP POP POP POP PUSH1 0x40 MLOAD RETURNDATASIZE PUSH1 0x20 DUP2 LT ISZERO PUSH2 0x2062 JUMPI PUSH1 0x0 DUP1 REVERT JUMPDEST POP MLOAD PUSH2 0x206C PUSH2 0x2716 JUMP JUMPDEST SWAP1 PUSH2 0x2A3B JUMP JUMPDEST SWAP1 POP PUSH2 0xAE6 JUMP JUMPDEST PUSH2 0x2114 PUSH1 0x64 PUSH2 0xAC9 PUSH32 0x0 PUSH1 0x1 PUSH1 0x1 PUSH1 0xA0 SHL SUB AND PUSH4 0x313CE567 PUSH1 0x40 MLOAD DUP2 PUSH4 0xFFFFFFFF AND PUSH1 0xE0 SHL DUP2 MSTORE PUSH1 0x4 ADD PUSH1 0x20 PUSH1 0x40 MLOAD DUP1 DUP4 SUB DUP2 DUP7 DUP1 EXTCODESIZE ISZERO DUP1 ISZERO PUSH2 0x20DA JUMPI PUSH1 0x0 DUP1 REVERT JUMPDEST POP GAS STATICCALL ISZERO DUP1 ISZERO PUSH2 0x20EE JUMPI RETURNDATASIZE PUSH1 0x0 DUP1 RETURNDATACOPY RETURNDATASIZE PUSH1 0x0 REVERT JUMPDEST POP POP POP POP PUSH1 0x40 MLOAD RETURNDATASIZE PUSH1 0x20 DUP2 LT ISZERO PUSH2 0x2104 JUMPI PUSH1 0x0 DUP1 REVERT JUMPDEST POP MLOAD PUSH1 0xFF AND PUSH1 0xA EXP PUSH2 0x206C PUSH2 0x2716 JUMP JUMPDEST SWAP1 POP SWAP1 JUMP JUMPDEST PUSH1 0x0 PUSH32 0x0 ISZERO PUSH2 0x220D JUMPI PUSH2 0x2072 PUSH4 0x3B9ACA00 PUSH2 0xAC9 PUSH32 0x0 PUSH1 0x1 PUSH1 0x1 PUSH1 0xA0 SHL SUB AND PUSH4 0x32DA80A3 PUSH32 0x0 PUSH1 0x40 MLOAD DUP3 PUSH4 0xFFFFFFFF AND PUSH1 0xE0 SHL DUP2 MSTORE PUSH1 0x4 ADD DUP1 DUP3 PUSH1 0x1 PUSH1 0x1 PUSH1 0xA0 SHL SUB AND DUP2 MSTORE PUSH1 0x20 ADD SWAP2 POP POP PUSH1 0x20 PUSH1 0x40 MLOAD DUP1 DUP4 SUB DUP2 DUP7 DUP1 EXTCODESIZE ISZERO DUP1 ISZERO PUSH2 0x21D9 JUMPI PUSH1 0x0 DUP1 REVERT JUMPDEST POP GAS STATICCALL ISZERO DUP1 ISZERO PUSH2 0x21ED JUMPI RETURNDATASIZE PUSH1 0x0 DUP1 RETURNDATACOPY RETURNDATASIZE PUSH1 0x0 REVERT JUMPDEST POP POP POP POP PUSH1 0x40 MLOAD RETURNDATASIZE PUSH1 0x20 DUP2 LT ISZERO PUSH2 0x2203 JUMPI PUSH1 0x0 DUP1 REVERT JUMPDEST POP MLOAD PUSH2 0x206C PUSH2 0x23CE JUMP JUMPDEST PUSH2 0x2072 PUSH2 0x23CE JUMP JUMPDEST PUSH32 0x0 DUP2 JUMP JUMPDEST PUSH1 0x3 DUP2 JUMP JUMPDEST PUSH1 0x0 PUSH32 0x0 PUSH1 0x1 PUSH1 0x1 PUSH1 0xA0 SHL SUB AND DUP3 PUSH1 0x1 PUSH1 0x1 PUSH1 0xA0 SHL SUB AND EQ ISZERO PUSH2 0x227F JUMPI PUSH1 0x0 DUP1 REVERT JUMPDEST PUSH32 0x0 PUSH1 0x1 PUSH1 0x1 PUSH1 0xA0 SHL SUB AND DUP3 PUSH1 0x1 PUSH1 0x1 PUSH1 0xA0 SHL SUB AND EQ ISZERO PUSH2 0x22BE JUMPI PUSH1 0x0 DUP1 REVERT JUMPDEST PUSH2 0x236C PUSH32 0x0 DUP4 PUSH1 0x1 PUSH1 0x1 PUSH1 0xA0 SHL SUB AND PUSH4 0x70A08231 ADDRESS PUSH1 0x40 MLOAD DUP3 PUSH4 0xFFFFFFFF AND PUSH1 0xE0 SHL DUP2 MSTORE PUSH1 0x4 ADD DUP1 DUP3 PUSH1 0x1 PUSH1 0x1 PUSH1 0xA0 SHL SUB AND DUP2 MSTORE PUSH1 0x20 ADD SWAP2 POP POP PUSH1 0x20 PUSH1 0x40 MLOAD DUP1 DUP4 SUB DUP2 DUP7 DUP1 EXTCODESIZE ISZERO DUP1 ISZERO PUSH2 0x232F JUMPI PUSH1 0x0 DUP1 REVERT JUMPDEST POP GAS STATICCALL ISZERO DUP1 ISZERO PUSH2 0x2343 JUMPI RETURNDATASIZE PUSH1 0x0 DUP1 RETURNDATACOPY RETURNDATASIZE PUSH1 0x0 REVERT JUMPDEST POP POP POP POP PUSH1 0x40 MLOAD RETURNDATASIZE PUSH1 0x20 DUP2 LT ISZERO PUSH2 0x2359 JUMPI PUSH1 0x0 DUP1 REVERT JUMPDEST POP MLOAD PUSH1 0x1 PUSH1 0x1 PUSH1 0xA0 SHL SUB DUP6 AND SWAP2 SWAP1 PUSH2 0x2E80 JUMP JUMPDEST POP PUSH1 0x1 SWAP2 SWAP1 POP JUMP JUMPDEST PUSH1 0x1 SLOAD PUSH1 0x1 PUSH1 0x1 PUSH1 0xA0 SHL SUB AND DUP2 JUMP JUMPDEST PUSH32 0x0 DUP2 JUMP JUMPDEST PUSH1 0x15 PUSH1 0x20 MSTORE PUSH1 0x0 SWAP1 DUP2 MSTORE PUSH1 0x40 SWAP1 KECCAK256 DUP1 SLOAD PUSH1 0x1 DUP3 ADD SLOAD PUSH1 0x2 DUP4 ADD SLOAD PUSH1 0x3 SWAP1 SWAP4 ADD SLOAD SWAP2 SWAP3 SWAP1 SWAP2 DUP5 JUMP JUMPDEST PUSH1 0x0 DUP1 PUSH32 0x0 PUSH1 0x1 PUSH1 0x1 PUSH1 0xA0 SHL SUB AND PUSH4 0x18160DDD PUSH1 0x40 MLOAD DUP2 PUSH4 0xFFFFFFFF AND PUSH1 0xE0 SHL DUP2 MSTORE PUSH1 0x4 ADD PUSH1 0x20 PUSH1 0x40 MLOAD DUP1 DUP4 SUB DUP2 DUP7 DUP1 EXTCODESIZE ISZERO DUP1 ISZERO PUSH2 0x242A JUMPI PUSH1 0x0 DUP1 REVERT JUMPDEST POP GAS STATICCALL ISZERO DUP1 ISZERO PUSH2 0x243E JUMPI RETURNDATASIZE PUSH1 0x0 DUP1 RETURNDATACOPY RETURNDATASIZE PUSH1 0x0 REVERT JUMPDEST POP POP POP POP PUSH1 0x40 MLOAD RETURNDATASIZE PUSH1 0x20 DUP2 LT ISZERO PUSH2 0x2454 JUMPI PUSH1 0x0 DUP1 REVERT JUMPDEST POP MLOAD SWAP1 POP PUSH2 0x2480 PUSH8 0xDE0B6B3A7640000 PUSH2 0xAC9 PUSH2 0x1E35 PUSH2 0x247A PUSH4 0x3B9ACA00 PUSH2 0x206C PUSH2 0x1DFF JUMP JUMPDEST DUP6 PUSH2 0x2F2A JUMP JUMPDEST SWAP2 POP POP SWAP1 JUMP JUMPDEST PUSH1 0x1 PUSH1 0x0 SWAP1 SLOAD SWAP1 PUSH2 0x100 EXP SWAP1 DIV PUSH1 0x1 PUSH1 0x1 PUSH1 0xA0 SHL SUB AND PUSH1 0x1 PUSH1 0x1 PUSH1 0xA0 SHL SUB AND PUSH4 0xC340A24 PUSH1 0x40 MLOAD DUP2 PUSH4 0xFFFFFFFF AND PUSH1 0xE0 SHL DUP2 MSTORE PUSH1 0x4 ADD PUSH1 0x20 PUSH1 0x40 MLOAD DUP1 DUP4 SUB DUP2 DUP7 DUP1 EXTCODESIZE ISZERO DUP1 ISZERO PUSH2 0x24D4 JUMPI PUSH1 0x0 DUP1 REVERT JUMPDEST POP GAS STATICCALL ISZERO DUP1 ISZERO PUSH2 0x24E8 JUMPI RETURNDATASIZE PUSH1 0x0 DUP1 RETURNDATACOPY RETURNDATASIZE PUSH1 0x0 REVERT JUMPDEST POP POP POP POP PUSH1 0x40 MLOAD RETURNDATASIZE PUSH1 0x20 DUP2 LT ISZERO PUSH2 0x24FE JUMPI PUSH1 0x0 DUP1 REVERT JUMPDEST POP MLOAD PUSH1 0x0 SWAP1 PUSH1 0x1 PUSH1 0x1 PUSH1 0xA0 SHL SUB AND CALLER EQ PUSH2 0x2571 JUMPI PUSH1 0x40 MLOAD PUSH3 0x461BCD PUSH1 0xE5 SHL DUP2 MSTORE PUSH1 0x20 PUSH1 0x4 DUP3 ADD SWAP1 DUP2 MSTORE DUP3 SLOAD PUSH1 0x2 PUSH1 0x0 NOT PUSH2 0x100 PUSH1 0x1 DUP5 AND ISZERO MUL ADD SWAP1 SWAP2 AND DIV PUSH1 0x24 DUP4 ADD DUP2 SWAP1 MSTORE SWAP1 SWAP2 DUP3 SWAP2 PUSH1 0x44 SWAP1 SWAP2 ADD SWAP1 DUP5 SWAP1 DUP1 ISZERO PUSH2 0xA2A JUMPI DUP1 PUSH1 0x1F LT PUSH2 0x9FF JUMPI PUSH2 0x100 DUP1 DUP4 SLOAD DIV MUL DUP4 MSTORE SWAP2 PUSH1 0x20 ADD SWAP2 PUSH2 0xA2A JUMP JUMPDEST POP PUSH1 0x16 SSTORE NUMBER PUSH1 0x17 SSTORE JUMP JUMPDEST PUSH1 0x1 PUSH1 0x0 SWAP1 SLOAD SWAP1 PUSH2 0x100 EXP SWAP1 DIV PUSH1 0x1 PUSH1 0x1 PUSH1 0xA0 SHL SUB AND PUSH1 0x1 PUSH1 0x1 PUSH1 0xA0 SHL SUB AND PUSH4 0xC340A24 PUSH1 0x40 MLOAD DUP2 PUSH4 0xFFFFFFFF AND PUSH1 0xE0 SHL DUP2 MSTORE PUSH1 0x4 ADD PUSH1 0x20 PUSH1 0x40 MLOAD DUP1 DUP4 SUB DUP2 DUP7 DUP1 EXTCODESIZE ISZERO DUP1 ISZERO PUSH2 0x25C9 JUMPI PUSH1 0x0 DUP1 REVERT JUMPDEST POP GAS STATICCALL ISZERO DUP1 ISZERO PUSH2 0x25DD JUMPI RETURNDATASIZE PUSH1 0x0 DUP1 RETURNDATACOPY RETURNDATASIZE PUSH1 0x0 REVERT JUMPDEST POP POP POP POP PUSH1 0x40 MLOAD RETURNDATASIZE PUSH1 0x20 DUP2 LT ISZERO PUSH2 0x25F3 JUMPI PUSH1 0x0 DUP1 REVERT JUMPDEST POP MLOAD PUSH1 0x0 SWAP1 PUSH1 0x1 PUSH1 0x1 PUSH1 0xA0 SHL SUB AND CALLER EQ PUSH2 0x2666 JUMPI PUSH1 0x40 MLOAD PUSH3 0x461BCD PUSH1 0xE5 SHL DUP2 MSTORE PUSH1 0x20 PUSH1 0x4 DUP3 ADD SWAP1 DUP2 MSTORE DUP3 SLOAD PUSH1 0x2 PUSH1 0x0 NOT PUSH2 0x100 PUSH1 0x1 DUP5 AND ISZERO MUL ADD SWAP1 SWAP2 AND DIV PUSH1 0x24 DUP4 ADD DUP2 SWAP1 MSTORE SWAP1 SWAP2 DUP3 SWAP2 PUSH1 0x44 SWAP1 SWAP2 ADD SWAP1 DUP5 SWAP1 DUP1 ISZERO PUSH2 0xA2A JUMPI DUP1 PUSH1 0x1F LT PUSH2 0x9FF JUMPI PUSH2 0x100 DUP1 DUP4 SLOAD DIV MUL DUP4 MSTORE SWAP2 PUSH1 0x20 ADD SWAP2 PUSH2 0xA2A JUMP JUMPDEST POP PUSH1 0x1 PUSH1 0x1 PUSH1 0xA0 SHL SUB DUP3 AND PUSH2 0x267A JUMPI PUSH1 0x0 DUP1 REVERT JUMPDEST DUP1 ISZERO PUSH2 0x26AF JUMPI PUSH1 0x9 DUP1 SLOAD PUSH1 0x1 PUSH1 0xA0 SHL PUSH1 0xFF PUSH1 0xA0 SHL NOT SWAP1 SWAP2 AND OR PUSH1 0x1 PUSH1 0x1 PUSH1 0xA0 SHL SUB NOT AND PUSH1 0x1 PUSH1 0x1 PUSH1 0xA0 SHL SUB DUP5 AND OR SWAP1 SSTORE PUSH2 0xF61 JUMP JUMPDEST PUSH1 0x9 DUP1 SLOAD PUSH1 0xFF PUSH1 0xA0 SHL NOT AND SWAP1 SSTORE PUSH1 0x8 DUP1 SLOAD PUSH1 0x1 PUSH1 0x1 PUSH1 0xA0 SHL SUB DUP5 AND PUSH1 0x1 PUSH1 0x1 PUSH1 0xA0 SHL SUB NOT SWAP1 SWAP2 AND OR SWAP1 SSTORE POP POP JUMP JUMPDEST PUSH1 0xA SLOAD PUSH1 0xB SLOAD PUSH1 0xC SLOAD PUSH1 0xD SLOAD PUSH1 0xE SLOAD PUSH1 0xF SLOAD DUP7 JUMP JUMPDEST PUSH32 0x0 DUP2 JUMP JUMPDEST PUSH1 0x40 DUP1 MLOAD PUSH1 0x2 DUP1 DUP3 MSTORE PUSH1 0x60 DUP1 DUP4 ADD DUP5 MSTORE PUSH1 0x0 SWAP4 SWAP1 SWAP3 SWAP2 SWAP1 PUSH1 0x20 DUP4 ADD SWAP1 DUP1 CALLDATASIZE DUP4 CALLDATACOPY ADD SWAP1 POP POP SWAP1 POP PUSH32 0x0 DUP2 PUSH1 0x0 DUP2 MLOAD DUP2 LT PUSH2 0x276A JUMPI INVALID JUMPDEST PUSH1 0x1 PUSH1 0x1 PUSH1 0xA0 SHL SUB SWAP3 DUP4 AND PUSH1 0x20 SWAP2 DUP3 MUL SWAP3 SWAP1 SWAP3 ADD ADD MSTORE PUSH1 0x7 SLOAD DUP3 MLOAD SWAP2 AND SWAP1 DUP3 SWAP1 PUSH1 0x1 SWAP1 DUP2 LT PUSH2 0x2795 JUMPI INVALID JUMPDEST PUSH1 0x1 PUSH1 0x1 PUSH1 0xA0 SHL SUB SWAP3 DUP4 AND PUSH1 0x20 SWAP2 DUP3 MUL SWAP3 SWAP1 SWAP3 ADD DUP2 ADD SWAP2 SWAP1 SWAP2 MSTORE PUSH1 0x5 SLOAD PUSH1 0x40 DUP1 MLOAD PUSH4 0xD06CA61F PUSH1 0xE0 SHL DUP2 MSTORE PUSH1 0x1 PUSH1 0x4 DUP3 ADD DUP2 DUP2 MSTORE PUSH1 0x24 DUP4 ADD SWAP4 DUP5 MSTORE DUP8 MLOAD PUSH1 0x44 DUP5 ADD MSTORE DUP8 MLOAD PUSH1 0x60 SWAP8 SWAP6 SWAP1 SWAP6 AND SWAP6 PUSH4 0xD06CA61F SWAP6 SWAP3 SWAP5 DUP10 SWAP5 SWAP3 SWAP4 SWAP1 SWAP3 PUSH1 0x64 ADD SWAP2 DUP6 DUP2 ADD SWAP2 MUL DUP1 DUP4 DUP4 PUSH1 0x0 JUMPDEST DUP4 DUP2 LT ISZERO PUSH2 0x2816 JUMPI DUP2 DUP2 ADD MLOAD DUP4 DUP3 ADD MSTORE PUSH1 0x20 ADD PUSH2 0x27FE JUMP JUMPDEST POP POP POP POP SWAP1 POP ADD SWAP4 POP POP POP POP PUSH1 0x0 PUSH1 0x40 MLOAD DUP1 DUP4 SUB DUP2 DUP7 DUP1 EXTCODESIZE ISZERO DUP1 ISZERO PUSH2 0x283A JUMPI PUSH1 0x0 DUP1 REVERT JUMPDEST POP GAS STATICCALL ISZERO DUP1 ISZERO PUSH2 0x284E JUMPI RETURNDATASIZE PUSH1 0x0 DUP1 RETURNDATACOPY RETURNDATASIZE PUSH1 0x0 REVERT JUMPDEST POP POP POP POP PUSH1 0x40 MLOAD RETURNDATASIZE PUSH1 0x0 DUP3 RETURNDATACOPY PUSH1 0x1F RETURNDATASIZE SWAP1 DUP2 ADD PUSH1 0x1F NOT AND DUP3 ADD PUSH1 0x40 MSTORE PUSH1 0x20 DUP2 LT ISZERO PUSH2 0x2877 JUMPI PUSH1 0x0 DUP1 REVERT JUMPDEST DUP2 ADD SWAP1 DUP1 DUP1 MLOAD PUSH1 0x40 MLOAD SWAP4 SWAP3 SWAP2 SWAP1 DUP5 PUSH1 0x1 PUSH1 0x20 SHL DUP3 GT ISZERO PUSH2 0x2896 JUMPI PUSH1 0x0 DUP1 REVERT JUMPDEST SWAP1 DUP4 ADD SWAP1 PUSH1 0x20 DUP3 ADD DUP6 DUP2 GT ISZERO PUSH2 0x28AB JUMPI PUSH1 0x0 DUP1 REVERT JUMPDEST DUP3 MLOAD DUP7 PUSH1 0x20 DUP3 MUL DUP4 ADD GT PUSH1 0x1 PUSH1 0x20 SHL DUP3 GT OR ISZERO PUSH2 0x28C7 JUMPI PUSH1 0x0 DUP1 REVERT JUMPDEST DUP3 MSTORE POP DUP2 MLOAD PUSH1 0x20 SWAP2 DUP3 ADD SWAP3 DUP3 ADD SWAP2 MUL DUP1 DUP4 DUP4 PUSH1 0x0 JUMPDEST DUP4 DUP2 LT ISZERO PUSH2 0x28F4 JUMPI DUP2 DUP2 ADD MLOAD DUP4 DUP3 ADD MSTORE PUSH1 0x20 ADD PUSH2 0x28DC JUMP JUMPDEST POP POP POP POP SWAP1 POP ADD PUSH1 0x40 MSTORE POP POP POP SWAP1 POP PUSH2 0x2937 PUSH4 0x3B9ACA00 PUSH2 0xAC9 PUSH1 0x18 SLOAD DUP5 PUSH1 0x1 DUP8 MLOAD SUB DUP2 MLOAD DUP2 LT PUSH2 0x2921 JUMPI INVALID JUMPDEST PUSH1 0x20 MUL PUSH1 0x20 ADD ADD MLOAD PUSH2 0x2A3B SWAP1 SWAP2 SWAP1 PUSH4 0xFFFFFFFF AND JUMP JUMPDEST SWAP3 POP POP POP SWAP1 JUMP JUMPDEST PUSH1 0x0 PUSH2 0x2114 PUSH3 0x186A0 PUSH2 0xAC9 PUSH1 0xA PUSH1 0x3 ADD SLOAD PUSH32 0x0 PUSH1 0x1 PUSH1 0x1 PUSH1 0xA0 SHL SUB AND PUSH4 0x18160DDD PUSH1 0x40 MLOAD DUP2 PUSH4 0xFFFFFFFF AND PUSH1 0xE0 SHL DUP2 MSTORE PUSH1 0x4 ADD PUSH1 0x20 PUSH1 0x40 MLOAD DUP1 DUP4 SUB DUP2 DUP7 DUP1 EXTCODESIZE ISZERO DUP1 ISZERO PUSH2 0x29A9 JUMPI PUSH1 0x0 DUP1 REVERT JUMPDEST POP GAS STATICCALL ISZERO DUP1 ISZERO PUSH2 0x29BD JUMPI RETURNDATASIZE PUSH1 0x0 DUP1 RETURNDATACOPY RETURNDATASIZE PUSH1 0x0 REVERT JUMPDEST POP POP POP POP PUSH1 0x40 MLOAD RETURNDATASIZE PUSH1 0x20 DUP2 LT ISZERO PUSH2 0x29D3 JUMPI PUSH1 0x0 DUP1 REVERT JUMPDEST POP MLOAD SWAP1 PUSH2 0x2A3B JUMP JUMPDEST PUSH1 0x7 SLOAD PUSH1 0x1 PUSH1 0x1 PUSH1 0xA0 SHL SUB AND DUP2 JUMP JUMPDEST PUSH1 0x0 DUP1 PUSH2 0x2A02 PUSH1 0x17 SLOAD NUMBER PUSH2 0x2DDE SWAP1 SWAP2 SWAP1 PUSH4 0xFFFFFFFF AND JUMP JUMPDEST PUSH1 0xB SLOAD PUSH1 0x16 SLOAD SWAP2 SWAP3 POP PUSH2 0x2A19 SWAP2 PUSH2 0xAC9 SWAP1 DUP5 PUSH2 0x2A3B JUMP JUMPDEST SWAP2 POP PUSH1 0x16 SLOAD DUP3 GT ISZERO PUSH2 0x2A2B JUMPI PUSH1 0x16 SLOAD SWAP2 POP JUMPDEST POP SWAP1 JUMP JUMPDEST PUSH1 0x17 SLOAD DUP2 JUMP JUMPDEST PUSH1 0x16 SLOAD DUP2 JUMP JUMPDEST PUSH1 0x0 DUP3 PUSH2 0x2A4A JUMPI POP PUSH1 0x0 PUSH2 0x1221 JUMP JUMPDEST DUP3 DUP3 MUL DUP3 DUP5 DUP3 DUP2 PUSH2 0x2A57 JUMPI INVALID JUMPDEST DIV EQ PUSH2 0x2A94 JUMPI PUSH1 0x40 MLOAD PUSH3 0x461BCD PUSH1 0xE5 SHL DUP2 MSTORE PUSH1 0x4 ADD DUP1 DUP1 PUSH1 0x20 ADD DUP3 DUP2 SUB DUP3 MSTORE PUSH1 0x21 DUP2 MSTORE PUSH1 0x20 ADD DUP1 PUSH2 0x364D PUSH1 0x21 SWAP2 CODECOPY PUSH1 0x40 ADD SWAP2 POP POP PUSH1 0x40 MLOAD DUP1 SWAP2 SUB SWAP1 REVERT JUMPDEST SWAP4 SWAP3 POP POP POP JUMP JUMPDEST PUSH1 0x0 PUSH2 0x2A94 DUP4 DUP4 PUSH1 0x40 MLOAD DUP1 PUSH1 0x40 ADD PUSH1 0x40 MSTORE DUP1 PUSH1 0x1A DUP2 MSTORE PUSH1 0x20 ADD PUSH26 0x536166654D6174683A206469766973696F6E206279207A65726F PUSH1 0x30 SHL DUP2 MSTORE POP PUSH2 0x308A JUMP JUMPDEST PUSH1 0x0 DUP3 PUSH2 0x2B8A JUMPI PUSH32 0x0 PUSH1 0x1 PUSH1 0x1 PUSH1 0xA0 SHL SUB AND PUSH4 0xA9059CBB DUP6 DUP5 PUSH1 0x40 MLOAD DUP4 PUSH4 0xFFFFFFFF AND PUSH1 0xE0 SHL DUP2 MSTORE PUSH1 0x4 ADD DUP1 DUP4 PUSH1 0x1 PUSH1 0x1 PUSH1 0xA0 SHL SUB AND DUP2 MSTORE PUSH1 0x20 ADD DUP3 DUP2 MSTORE PUSH1 0x20 ADD SWAP3 POP POP POP PUSH1 0x20 PUSH1 0x40 MLOAD DUP1 DUP4 SUB DUP2 PUSH1 0x0 DUP8 DUP1 EXTCODESIZE ISZERO DUP1 ISZERO PUSH2 0x2B58 JUMPI PUSH1 0x0 DUP1 REVERT JUMPDEST POP GAS CALL ISZERO DUP1 ISZERO PUSH2 0x2B6C JUMPI RETURNDATASIZE PUSH1 0x0 DUP1 RETURNDATACOPY RETURNDATASIZE PUSH1 0x0 REVERT JUMPDEST POP POP POP POP PUSH1 0x40 MLOAD RETURNDATASIZE PUSH1 0x20 DUP2 LT ISZERO PUSH2 0x2B82 JUMPI PUSH1 0x0 DUP1 REVERT JUMPDEST POP PUSH2 0x2DD7 SWAP1 POP JUMP JUMPDEST PUSH1 0x9 SLOAD PUSH1 0x1 PUSH1 0xA0 SHL SWAP1 DIV PUSH1 0xFF AND ISZERO PUSH2 0x2CB1 JUMPI PUSH1 0x9 SLOAD PUSH1 0x40 DUP1 MLOAD PUSH4 0x95EA7B3 PUSH1 0xE0 SHL DUP2 MSTORE PUSH1 0x1 PUSH1 0x1 PUSH1 0xA0 SHL SUB SWAP3 DUP4 AND PUSH1 0x4 DUP3 ADD MSTORE PUSH1 0x24 DUP2 ADD DUP6 SWAP1 MSTORE SWAP1 MLOAD PUSH32 0x0 SWAP1 SWAP3 AND SWAP2 PUSH4 0x95EA7B3 SWAP2 PUSH1 0x44 DUP1 DUP3 ADD SWAP3 PUSH1 0x20 SWAP3 SWAP1 SWAP2 SWAP1 DUP3 SWAP1 SUB ADD DUP2 PUSH1 0x0 DUP8 DUP1 EXTCODESIZE ISZERO DUP1 ISZERO PUSH2 0x2C13 JUMPI PUSH1 0x0 DUP1 REVERT JUMPDEST POP GAS CALL ISZERO DUP1 ISZERO PUSH2 0x2C27 JUMPI RETURNDATASIZE PUSH1 0x0 DUP1 RETURNDATACOPY RETURNDATASIZE PUSH1 0x0 REVERT JUMPDEST POP POP POP POP PUSH1 0x40 MLOAD RETURNDATASIZE PUSH1 0x20 DUP2 LT ISZERO PUSH2 0x2C3D JUMPI PUSH1 0x0 DUP1 REVERT JUMPDEST POP POP PUSH1 0x9 SLOAD PUSH1 0x40 DUP1 MLOAD PUSH4 0x7ACB7757 PUSH1 0xE0 SHL DUP2 MSTORE PUSH1 0x4 DUP2 ADD DUP6 SWAP1 MSTORE PUSH1 0x1 PUSH1 0x1 PUSH1 0xA0 SHL SUB DUP8 DUP2 AND PUSH1 0x24 DUP4 ADD MSTORE SWAP2 MLOAD SWAP2 SWAP1 SWAP3 AND SWAP2 PUSH4 0x7ACB7757 SWAP2 PUSH1 0x44 DUP1 DUP4 ADD SWAP3 PUSH1 0x0 SWAP3 SWAP2 SWAP1 DUP3 SWAP1 SUB ADD DUP2 DUP4 DUP8 DUP1 EXTCODESIZE ISZERO DUP1 ISZERO PUSH2 0x2C94 JUMPI PUSH1 0x0 DUP1 REVERT JUMPDEST POP GAS CALL ISZERO DUP1 ISZERO PUSH2 0x2CA8 JUMPI RETURNDATASIZE PUSH1 0x0 DUP1 RETURNDATACOPY RETURNDATASIZE PUSH1 0x0 REVERT JUMPDEST POP POP POP POP PUSH2 0x2DD7 JUMP JUMPDEST PUSH1 0x8 SLOAD PUSH1 0x40 DUP1 MLOAD PUSH4 0x95EA7B3 PUSH1 0xE0 SHL DUP2 MSTORE PUSH1 0x1 PUSH1 0x1 PUSH1 0xA0 SHL SUB SWAP3 DUP4 AND PUSH1 0x4 DUP3 ADD MSTORE PUSH1 0x24 DUP2 ADD DUP6 SWAP1 MSTORE SWAP1 MLOAD PUSH32 0x0 SWAP1 SWAP3 AND SWAP2 PUSH4 0x95EA7B3 SWAP2 PUSH1 0x44 DUP1 DUP3 ADD SWAP3 PUSH1 0x20 SWAP3 SWAP1 SWAP2 SWAP1 DUP3 SWAP1 SUB ADD DUP2 PUSH1 0x0 DUP8 DUP1 EXTCODESIZE ISZERO DUP1 ISZERO PUSH2 0x2D28 JUMPI PUSH1 0x0 DUP1 REVERT JUMPDEST POP GAS CALL ISZERO DUP1 ISZERO PUSH2 0x2D3C JUMPI RETURNDATASIZE PUSH1 0x0 DUP1 RETURNDATACOPY RETURNDATASIZE PUSH1 0x0 REVERT JUMPDEST POP POP POP POP PUSH1 0x40 MLOAD RETURNDATASIZE PUSH1 0x20 DUP2 LT ISZERO PUSH2 0x2D52 JUMPI PUSH1 0x0 DUP1 REVERT JUMPDEST POP POP PUSH1 0x8 SLOAD PUSH1 0x40 DUP1 MLOAD PUSH4 0xD7BAC7B7 PUSH1 0xE0 SHL DUP2 MSTORE PUSH1 0x4 DUP2 ADD DUP6 SWAP1 MSTORE PUSH1 0x1 PUSH1 0x1 PUSH1 0xA0 SHL SUB DUP8 DUP2 AND PUSH1 0x24 DUP4 ADD MSTORE SWAP2 MLOAD SWAP2 SWAP1 SWAP3 AND SWAP2 PUSH4 0xD7BAC7B7 SWAP2 PUSH1 0x44 DUP1 DUP4 ADD SWAP3 PUSH1 0x20 SWAP3 SWAP2 SWAP1 DUP3 SWAP1 SUB ADD DUP2 PUSH1 0x0 DUP8 DUP1 EXTCODESIZE ISZERO DUP1 ISZERO PUSH2 0x2DAA JUMPI PUSH1 0x0 DUP1 REVERT JUMPDEST POP GAS CALL ISZERO DUP1 ISZERO PUSH2 0x2DBE JUMPI RETURNDATASIZE PUSH1 0x0 DUP1 RETURNDATACOPY RETURNDATASIZE PUSH1 0x0 REVERT JUMPDEST POP POP POP POP PUSH1 0x40 MLOAD RETURNDATASIZE PUSH1 0x20 DUP2 LT ISZERO PUSH2 0x2DD4 JUMPI PUSH1 0x0 DUP1 REVERT JUMPDEST POP POP JUMPDEST POP SWAP3 SWAP2 POP POP JUMP JUMPDEST PUSH1 0x0 PUSH2 0x2A94 DUP4 DUP4 PUSH1 0x40 MLOAD DUP1 PUSH1 0x40 ADD PUSH1 0x40 MSTORE DUP1 PUSH1 0x1E DUP2 MSTORE PUSH1 0x20 ADD PUSH32 0x536166654D6174683A207375627472616374696F6E206F766572666C6F770000 DUP2 MSTORE POP PUSH2 0x312C JUMP JUMPDEST PUSH1 0x40 DUP1 MLOAD PUSH1 0x1 PUSH1 0x1 PUSH1 0xA0 SHL SUB DUP1 DUP7 AND PUSH1 0x24 DUP4 ADD MSTORE DUP5 AND PUSH1 0x44 DUP3 ADD MSTORE PUSH1 0x64 DUP1 DUP3 ADD DUP5 SWAP1 MSTORE DUP3 MLOAD DUP1 DUP4 SUB SWAP1 SWAP2 ADD DUP2 MSTORE PUSH1 0x84 SWAP1 SWAP2 ADD SWAP1 SWAP2 MSTORE PUSH1 0x20 DUP2 ADD DUP1 MLOAD PUSH1 0x1 PUSH1 0x1 PUSH1 0xE0 SHL SUB AND PUSH4 0x23B872DD PUSH1 0xE0 SHL OR SWAP1 MSTORE PUSH2 0x2E7A SWAP1 DUP6 SWAP1 PUSH2 0x3186 JUMP JUMPDEST POP POP POP POP JUMP JUMPDEST PUSH1 0x40 DUP1 MLOAD PUSH1 0x1 PUSH1 0x1 PUSH1 0xA0 SHL SUB DUP5 AND PUSH1 0x24 DUP3 ADD MSTORE PUSH1 0x44 DUP1 DUP3 ADD DUP5 SWAP1 MSTORE DUP3 MLOAD DUP1 DUP4 SUB SWAP1 SWAP2 ADD DUP2 MSTORE PUSH1 0x64 SWAP1 SWAP2 ADD SWAP1 SWAP2 MSTORE PUSH1 0x20 DUP2 ADD DUP1 MLOAD PUSH1 0x1 PUSH1 0x1 PUSH1 0xE0 SHL SUB AND PUSH4 0xA9059CBB PUSH1 0xE0 SHL OR SWAP1 MSTORE PUSH2 0x1638 SWAP1 DUP5 SWAP1 PUSH2 0x3186 JUMP JUMPDEST PUSH1 0x0 DUP3 DUP3 ADD DUP4 DUP2 LT ISZERO PUSH2 0x2A94 JUMPI PUSH1 0x40 DUP1 MLOAD PUSH3 0x461BCD PUSH1 0xE5 SHL DUP2 MSTORE PUSH1 0x20 PUSH1 0x4 DUP3 ADD MSTORE PUSH1 0x1B PUSH1 0x24 DUP3 ADD MSTORE PUSH27 0x536166654D6174683A206164646974696F6E206F766572666C6F77 PUSH1 0x28 SHL PUSH1 0x44 DUP3 ADD MSTORE SWAP1 MLOAD SWAP1 DUP2 SWAP1 SUB PUSH1 0x64 ADD SWAP1 REVERT JUMPDEST PUSH2 0x2F32 PUSH2 0x3523 JUMP JUMPDEST PUSH1 0x0 DUP3 GT PUSH2 0x2F71 JUMPI PUSH1 0x40 MLOAD PUSH3 0x461BCD PUSH1 0xE5 SHL DUP2 MSTORE PUSH1 0x4 ADD DUP1 DUP1 PUSH1 0x20 ADD DUP3 DUP2 SUB DUP3 MSTORE PUSH1 0x26 DUP2 MSTORE PUSH1 0x20 ADD DUP1 PUSH2 0x3607 PUSH1 0x26 SWAP2 CODECOPY PUSH1 0x40 ADD SWAP2 POP POP PUSH1 0x40 MLOAD DUP1 SWAP2 SUB SWAP1 REVERT JUMPDEST DUP3 PUSH2 0x2F8B JUMPI POP PUSH1 0x40 DUP1 MLOAD PUSH1 0x20 DUP2 ADD SWAP1 SWAP2 MSTORE PUSH1 0x0 DUP2 MSTORE PUSH2 0x1221 JUMP JUMPDEST PUSH1 0x1 PUSH1 0x1 PUSH1 0x90 SHL SUB DUP4 GT PUSH2 0x3015 JUMPI PUSH1 0x0 DUP3 PUSH1 0x70 DUP6 SWAP1 SHL DUP2 PUSH2 0x2FA8 JUMPI INVALID JUMPDEST DIV SWAP1 POP PUSH1 0x1 PUSH1 0x1 PUSH1 0xE0 SHL SUB DUP2 GT ISZERO PUSH2 0x2FF5 JUMPI PUSH1 0x40 DUP1 MLOAD PUSH3 0x461BCD PUSH1 0xE5 SHL DUP2 MSTORE PUSH1 0x20 PUSH1 0x4 DUP3 ADD MSTORE PUSH1 0x1E PUSH1 0x24 DUP3 ADD MSTORE PUSH1 0x0 DUP1 MLOAD PUSH1 0x20 PUSH2 0x362D DUP4 CODECOPY DUP2 MLOAD SWAP2 MSTORE PUSH1 0x44 DUP3 ADD MSTORE SWAP1 MLOAD SWAP1 DUP2 SWAP1 SUB PUSH1 0x64 ADD SWAP1 REVERT JUMPDEST PUSH1 0x40 MLOAD DUP1 PUSH1 0x20 ADD PUSH1 0x40 MSTORE DUP1 DUP3 PUSH1 0x1 PUSH1 0x1 PUSH1 0xE0 SHL SUB AND DUP2 MSTORE POP SWAP2 POP POP PUSH2 0x1221 JUMP JUMPDEST PUSH1 0x0 PUSH2 0x3026 DUP5 PUSH1 0x1 PUSH1 0x70 SHL DUP6 PUSH2 0x3237 JUMP JUMPDEST SWAP1 POP PUSH1 0x1 PUSH1 0x1 PUSH1 0xE0 SHL SUB DUP2 GT ISZERO PUSH2 0x2FF5 JUMPI PUSH1 0x40 DUP1 MLOAD PUSH3 0x461BCD PUSH1 0xE5 SHL DUP2 MSTORE PUSH1 0x20 PUSH1 0x4 DUP3 ADD MSTORE PUSH1 0x1E PUSH1 0x24 DUP3 ADD MSTORE PUSH1 0x0 DUP1 MLOAD PUSH1 0x20 PUSH2 0x362D DUP4 CODECOPY DUP2 MLOAD SWAP2 MSTORE PUSH1 0x44 DUP3 ADD MSTORE SWAP1 MLOAD SWAP1 DUP2 SWAP1 SUB PUSH1 0x64 ADD SWAP1 REVERT JUMPDEST MLOAD PUSH7 0x12725DD1D243AB PUSH1 0x1 PUSH1 0x1 PUSH1 0xE0 SHL SUB SWAP1 SWAP2 AND DIV SWAP1 JUMP JUMPDEST PUSH1 0x0 DUP2 DUP4 PUSH2 0x3116 JUMPI PUSH1 0x40 MLOAD PUSH3 0x461BCD PUSH1 0xE5 SHL DUP2 MSTORE PUSH1 0x4 ADD DUP1 DUP1 PUSH1 0x20 ADD DUP3 DUP2 SUB DUP3 MSTORE DUP4 DUP2 DUP2 MLOAD DUP2 MSTORE PUSH1 0x20 ADD SWAP2 POP DUP1 MLOAD SWAP1 PUSH1 0x20 ADD SWAP1 DUP1 DUP4 DUP4 PUSH1 0x0 JUMPDEST DUP4 DUP2 LT ISZERO PUSH2 0x30DB JUMPI DUP2 DUP2 ADD MLOAD DUP4 DUP3 ADD MSTORE PUSH1 0x20 ADD PUSH2 0x30C3 JUMP JUMPDEST POP POP POP POP SWAP1 POP SWAP1 DUP2 ADD SWAP1 PUSH1 0x1F AND DUP1 ISZERO PUSH2 0x3108 JUMPI DUP1 DUP3 SUB DUP1 MLOAD PUSH1 0x1 DUP4 PUSH1 0x20 SUB PUSH2 0x100 EXP SUB NOT AND DUP2 MSTORE PUSH1 0x20 ADD SWAP2 POP JUMPDEST POP SWAP3 POP POP POP PUSH1 0x40 MLOAD DUP1 SWAP2 SUB SWAP1 REVERT JUMPDEST POP PUSH1 0x0 DUP4 DUP6 DUP2 PUSH2 0x3122 JUMPI INVALID JUMPDEST DIV SWAP6 SWAP5 POP POP POP POP POP JUMP JUMPDEST PUSH1 0x0 DUP2 DUP5 DUP5 GT ISZERO PUSH2 0x317E JUMPI PUSH1 0x40 MLOAD PUSH3 0x461BCD PUSH1 0xE5 SHL DUP2 MSTORE PUSH1 0x20 PUSH1 0x4 DUP3 ADD DUP2 DUP2 MSTORE DUP4 MLOAD PUSH1 0x24 DUP5 ADD MSTORE DUP4 MLOAD SWAP1 SWAP3 DUP4 SWAP3 PUSH1 0x44 SWAP1 SWAP2 ADD SWAP2 SWAP1 DUP6 ADD SWAP1 DUP1 DUP4 DUP4 PUSH1 0x0 DUP4 ISZERO PUSH2 0x30DB JUMPI DUP2 DUP2 ADD MLOAD DUP4 DUP3 ADD MSTORE PUSH1 0x20 ADD PUSH2 0x30C3 JUMP JUMPDEST POP POP POP SWAP1 SUB SWAP1 JUMP JUMPDEST PUSH1 0x60 PUSH2 0x31DB DUP3 PUSH1 0x40 MLOAD DUP1 PUSH1 0x40 ADD PUSH1 0x40 MSTORE DUP1 PUSH1 0x20 DUP2 MSTORE PUSH1 0x20 ADD PUSH32 0x5361666545524332303A206C6F772D6C6576656C2063616C6C206661696C6564 DUP2 MSTORE POP DUP6 PUSH1 0x1 PUSH1 0x1 PUSH1 0xA0 SHL SUB AND PUSH2 0x32D4 SWAP1 SWAP3 SWAP2 SWAP1 PUSH4 0xFFFFFFFF AND JUMP JUMPDEST DUP1 MLOAD SWAP1 SWAP2 POP ISZERO PUSH2 0x1638 JUMPI DUP1 DUP1 PUSH1 0x20 ADD SWAP1 MLOAD PUSH1 0x20 DUP2 LT ISZERO PUSH2 0x31FA JUMPI PUSH1 0x0 DUP1 REVERT JUMPDEST POP MLOAD PUSH2 0x1638 JUMPI PUSH1 0x40 MLOAD PUSH3 0x461BCD PUSH1 0xE5 SHL DUP2 MSTORE PUSH1 0x4 ADD DUP1 DUP1 PUSH1 0x20 ADD DUP3 DUP2 SUB DUP3 MSTORE PUSH1 0x2A DUP2 MSTORE PUSH1 0x20 ADD DUP1 PUSH2 0x36B2 PUSH1 0x2A SWAP2 CODECOPY PUSH1 0x40 ADD SWAP2 POP POP PUSH1 0x40 MLOAD DUP1 SWAP2 SUB SWAP1 REVERT JUMPDEST PUSH1 0x0 DUP1 PUSH1 0x0 PUSH2 0x3246 DUP7 DUP7 PUSH2 0x32EB JUMP JUMPDEST SWAP2 POP SWAP2 POP PUSH1 0x0 DUP5 DUP1 PUSH2 0x3254 JUMPI INVALID JUMPDEST DUP7 DUP9 MULMOD SWAP1 POP DUP3 DUP2 GT ISZERO PUSH2 0x3268 JUMPI PUSH1 0x1 DUP3 SUB SWAP2 POP JUMPDEST DUP1 DUP4 SUB SWAP3 POP DUP5 DUP3 LT PUSH2 0x32BE JUMPI PUSH1 0x40 DUP1 MLOAD PUSH3 0x461BCD PUSH1 0xE5 SHL DUP2 MSTORE PUSH1 0x20 PUSH1 0x4 DUP3 ADD MSTORE PUSH1 0x1A PUSH1 0x24 DUP3 ADD MSTORE PUSH26 0x46756C6C4D6174683A3A6D756C4469763A206F766572666C6F77 PUSH1 0x30 SHL PUSH1 0x44 DUP3 ADD MSTORE SWAP1 MLOAD SWAP1 DUP2 SWAP1 SUB PUSH1 0x64 ADD SWAP1 REVERT JUMPDEST PUSH2 0x32C9 DUP4 DUP4 DUP8 PUSH2 0x3318 JUMP JUMPDEST SWAP8 SWAP7 POP POP POP POP POP POP POP JUMP JUMPDEST PUSH1 0x60 PUSH2 0x32E3 DUP5 DUP5 PUSH1 0x0 DUP6 PUSH2 0x3388 JUMP JUMPDEST SWAP5 SWAP4 POP POP POP POP JUMP JUMPDEST PUSH1 0x0 DUP1 DUP1 PUSH1 0x0 NOT DUP5 DUP7 MULMOD SWAP1 POP DUP4 DUP6 MUL SWAP3 POP DUP3 DUP2 SUB SWAP2 POP DUP3 DUP2 LT ISZERO PUSH2 0x3310 JUMPI PUSH1 0x1 DUP3 SUB SWAP2 POP JUMPDEST POP SWAP3 POP SWAP3 SWAP1 POP JUMP JUMPDEST PUSH1 0x0 DUP2 DUP2 SUB DUP3 AND DUP1 DUP4 DUP2 PUSH2 0x3328 JUMPI INVALID JUMPDEST DIV SWAP3 POP DUP1 DUP6 DUP2 PUSH2 0x3334 JUMPI INVALID JUMPDEST DIV SWAP5 POP DUP1 DUP2 PUSH1 0x0 SUB DUP2 PUSH2 0x3343 JUMPI INVALID JUMPDEST PUSH1 0x2 DUP6 DUP2 SUB DUP1 DUP8 MUL DUP3 SUB MUL DUP1 DUP8 MUL DUP3 SUB MUL DUP1 DUP8 MUL DUP3 SUB MUL DUP1 DUP8 MUL DUP3 SUB MUL DUP1 DUP8 MUL DUP3 SUB MUL DUP1 DUP8 MUL DUP3 SUB MUL SWAP6 DUP7 MUL SWAP1 SUB SWAP1 SWAP5 MUL SWAP4 DIV PUSH1 0x1 ADD SWAP4 SWAP1 SWAP4 MUL SWAP4 SWAP1 SWAP4 ADD MUL SWAP3 SWAP2 POP POP JUMP JUMPDEST PUSH1 0x60 PUSH2 0x3393 DUP6 PUSH2 0x34F5 JUMP JUMPDEST PUSH2 0x33E4 JUMPI PUSH1 0x40 DUP1 MLOAD PUSH3 0x461BCD PUSH1 0xE5 SHL DUP2 MSTORE PUSH1 0x20 PUSH1 0x4 DUP3 ADD MSTORE PUSH1 0x1D PUSH1 0x24 DUP3 ADD MSTORE PUSH32 0x416464726573733A2063616C6C20746F206E6F6E2D636F6E7472616374000000 PUSH1 0x44 DUP3 ADD MSTORE SWAP1 MLOAD SWAP1 DUP2 SWAP1 SUB PUSH1 0x64 ADD SWAP1 REVERT JUMPDEST PUSH1 0x0 PUSH1 0x60 DUP7 PUSH1 0x1 PUSH1 0x1 PUSH1 0xA0 SHL SUB AND DUP6 DUP8 PUSH1 0x40 MLOAD DUP1 DUP3 DUP1 MLOAD SWAP1 PUSH1 0x20 ADD SWAP1 DUP1 DUP4 DUP4 JUMPDEST PUSH1 0x20 DUP4 LT PUSH2 0x3423 JUMPI DUP1 MLOAD DUP3 MSTORE PUSH1 0x1F NOT SWAP1 SWAP3 ADD SWAP2 PUSH1 0x20 SWAP2 DUP3 ADD SWAP2 ADD PUSH2 0x3404 JUMP JUMPDEST PUSH1 0x1 DUP4 PUSH1 0x20 SUB PUSH2 0x100 EXP SUB DUP1 NOT DUP3 MLOAD AND DUP2 DUP5 MLOAD AND DUP1 DUP3 OR DUP6 MSTORE POP POP POP POP POP POP SWAP1 POP ADD SWAP2 POP POP PUSH1 0x0 PUSH1 0x40 MLOAD DUP1 DUP4 SUB DUP2 DUP6 DUP8 GAS CALL SWAP3 POP POP POP RETURNDATASIZE DUP1 PUSH1 0x0 DUP2 EQ PUSH2 0x3485 JUMPI PUSH1 0x40 MLOAD SWAP2 POP PUSH1 0x1F NOT PUSH1 0x3F RETURNDATASIZE ADD AND DUP3 ADD PUSH1 0x40 MSTORE RETURNDATASIZE DUP3 MSTORE RETURNDATASIZE PUSH1 0x0 PUSH1 0x20 DUP5 ADD RETURNDATACOPY PUSH2 0x348A JUMP JUMPDEST PUSH1 0x60 SWAP2 POP JUMPDEST POP SWAP2 POP SWAP2 POP DUP2 ISZERO PUSH2 0x349E JUMPI SWAP2 POP PUSH2 0x32E3 SWAP1 POP JUMP JUMPDEST DUP1 MLOAD ISZERO PUSH2 0x34AE JUMPI DUP1 MLOAD DUP1 DUP3 PUSH1 0x20 ADD REVERT JUMPDEST PUSH1 0x40 MLOAD PUSH3 0x461BCD PUSH1 0xE5 SHL DUP2 MSTORE PUSH1 0x20 PUSH1 0x4 DUP3 ADD DUP2 DUP2 MSTORE DUP7 MLOAD PUSH1 0x24 DUP5 ADD MSTORE DUP7 MLOAD DUP8 SWAP4 SWAP2 SWAP3 DUP4 SWAP3 PUSH1 0x44 ADD SWAP2 SWAP1 DUP6 ADD SWAP1 DUP1 DUP4 DUP4 PUSH1 0x0 DUP4 ISZERO PUSH2 0x30DB JUMPI DUP2 DUP2 ADD MLOAD DUP4 DUP3 ADD MSTORE PUSH1 0x20 ADD PUSH2 0x30C3 JUMP JUMPDEST EXTCODESIZE ISZERO ISZERO SWAP1 JUMP JUMPDEST PUSH1 0x40 MLOAD DUP1 PUSH1 0x80 ADD PUSH1 0x40 MSTORE DUP1 PUSH1 0x0 DUP2 MSTORE PUSH1 0x20 ADD PUSH1 0x0 DUP2 MSTORE PUSH1 0x20 ADD PUSH1 0x0 DUP2 MSTORE PUSH1 0x20 ADD PUSH1 0x0 DUP2 MSTORE POP SWAP1 JUMP JUMPDEST PUSH1 0x40 DUP1 MLOAD PUSH1 0x20 DUP2 ADD SWAP1 SWAP2 MSTORE PUSH1 0x0 DUP2 MSTORE SWAP1 JUMP INVALID 0xEA DUP3 PC CALLCODE 0xD9 0xDD 0xB6 PUSH26 0x928CF34B78CF645B7FEDA9ACC828E4DD82D014EAAE270EBA4F77 PUSH15 0x61626C653A206E6577206F776E6572 KECCAK256 PUSH10 0x7320746865207A65726F KECCAK256 PUSH2 0x6464 PUSH19 0x65737351C99F515C87B0D95BA97F616EDD182E DUP16 AND SHR 0x49 ORIGIN 0xEA 0xC1 PUSH29 0x6FEFE9DAB58B77B12A2A2A2A2A2A202076616C7565206973206C657373 KECCAK256 PUSH21 0x68616E207061796F7574207768696368206D65616E PUSH20 0x207072696365206973206C657373207468616E20 BALANCE KECCAK256 0x2A 0x2A 0x2A 0x2A 0x2A KECCAK256 0x4F PUSH24 0x6E61626C653A206D757374206265206E6577206F776E6572 KECCAK256 PUSH21 0x6F2070756C6C4669786564506F696E743A3A667261 PUSH4 0x74696F6E GASPRICE KECCAK256 PUSH5 0x6976697369 PUSH16 0x6E206279207A65726F4669786564506F PUSH10 0x6E743A3A667261637469 PUSH16 0x6E3A206F766572666C6F770000536166 PUSH6 0x4D6174683A20 PUSH14 0x756C7469706C69636174696F6E20 PUSH16 0x766572666C6F774F776E61626C653A20 PUSH4 0x616C6C65 PUSH19 0x206973206E6F7420746865206F776E65725665 PUSH20 0x74696E67206D757374206265206C6F6E67657220 PUSH21 0x68616E20333620686F757273536166654552433230 GASPRICE KECCAK256 GASLIMIT MSTORE NUMBER ORIGIN ADDRESS KECCAK256 PUSH16 0x7065726174696F6E20646964206E6F74 KECCAK256 PUSH20 0x756363656564A2646970667358221220F058D368 0xB3 DUP12 0xD1 0xE4 SDIV LOG2 PUSH13 0xC6AB341E2AD93CD0F6EB1566EF 0xD5 MULMOD 0xBD 0xE0 0xC9 SWAP9 0xDA PUSH32 0x64736F6C63430007050033000000000000000000000000000000000000000000 "
		},
		"gasEstimates": {
			"creation": {
				"codeDepositCost": "2819400",
				"executionCost": "infinite",
				"totalCost": "infinite"
			},
			"external": {
				"DAI()": "2027",
				"DAO()": "infinite",
				"TAZOR()": "infinite",
				"adjustment()": "4639",
				"authority()": "1807",
				"bondCalculator()": "infinite",
				"bondInfo(address)": "4446",
				"bondPrice()": "infinite",
				"bondPriceInUSD()": "infinite",
				"bondPurchased()": "1196",
				"bondTermVal()": "704",
				"bondpriceRatio()": "1614",
				"controlVariableVal()": "836",
				"currentDebt()": "1526",
				"debtDecay()": "infinite",
				"debtRatio()": "infinite",
				"deposit(uint256,address)": "infinite",
				"feeVal()": "924",
				"initializeBondTerms(uint256,uint256,uint256,uint256)": "infinite",
				"isLiquidityBond()": "infinite",
				"lastDecay()": "2032",
				"maxPayout()": "infinite",
				"payoutFor(uint256)": "infinite",
				"pendingPayoutFor(address)": "infinite",
				"percentVestedFor(address)": "infinite",
				"policy()": "1082",
				"principle()": "infinite",
				"pullManagement()": "infinite",
				"pushManagement(address)": "infinite",
				"recoverLostToken(address)": "infinite",
				"redeem(address,bool)": "infinite",
				"renounceManagement()": "infinite",
				"routerAddress()": "1323",
				"setAdjustment(bool,uint256,uint256,uint256)": "infinite",
				"setAuthority(address)": "infinite",
				"setBondTerms(uint8,uint256)": "infinite",
				"setFeeWalletAddress(address)": "infinite",
				"setStaking(address,bool)": "infinite",
				"setTotalDebt(uint256)": "infinite",
				"setbondPriceRatio(uint256)": "infinite",
				"staking()": "1411",
				"stakingHelper()": "1587",
				"standardizedDebtRatio()": "infinite",
				"terms()": "6017",
				"totalDebt()": "2054",
				"treasury()": "infinite",
				"uniswapV2Router()": "1125",
				"updateRouterAddress(address)": "infinite",
				"useHelper()": "1269",
				"withdraw()": "infinite"
			},
			"internal": {
				"adjust()": "infinite",
				"decayDebt()": "infinite",
				"stakeOrSend(address,bool,uint256)": "infinite"
			}
		},
		"methodIdentifiers": {
			"DAI()": "e0bab4c4",
			"DAO()": "98fabd3a",
			"TAZOR()": "54848a6c",
			"adjustment()": "451ee4a1",
			"authority()": "bf7e214f",
			"bondCalculator()": "c5332b7c",
			"bondInfo(address)": "cd1234b3",
			"bondPrice()": "d7ccfb0b",
			"bondPriceInUSD()": "844b5c7c",
			"bondPurchased()": "2297da89",
			"bondTermVal()": "6faf1dcf",
			"bondpriceRatio()": "813245ef",
			"controlVariableVal()": "8142dd1c",
			"currentDebt()": "759076e5",
			"debtDecay()": "e392a262",
			"debtRatio()": "cea55f57",
			"deposit(uint256,address)": "6e553f65",
			"feeVal()": "a48c30ea",
			"initializeBondTerms(uint256,uint256,uint256,uint256)": "247b8605",
			"isLiquidityBond()": "d7969060",
			"lastDecay()": "f5c2ab5b",
			"maxPayout()": "e0176de8",
			"payoutFor(uint256)": "7927ebf8",
			"pendingPayoutFor(address)": "01b88ee8",
			"percentVestedFor(address)": "507930ec",
			"policy()": "0505c8c9",
			"principle()": "016a4284",
			"pullManagement()": "5a96ac0a",
			"pushManagement(address)": "46f68ee9",
			"recoverLostToken(address)": "b4abccba",
			"redeem(address,bool)": "1feed31f",
			"renounceManagement()": "089208d8",
			"routerAddress()": "3268cc56",
			"setAdjustment(bool,uint256,uint256,uint256)": "1a3d0068",
			"setAuthority(address)": "7a9e5e4b",
			"setBondTerms(uint8,uint256)": "1e321a0f",
			"setFeeWalletAddress(address)": "31503ec4",
			"setStaking(address,bool)": "d4d863ce",
			"setTotalDebt(uint256)": "cf5a4260",
			"setbondPriceRatio(uint256)": "1f6ba53a",
			"staking()": "4cf088d9",
			"stakingHelper()": "77b81895",
			"standardizedDebtRatio()": "904b3ece",
			"terms()": "d5025625",
			"totalDebt()": "fc7b9c18",
			"treasury()": "61d027b3",
			"uniswapV2Router()": "1694505e",
			"updateRouterAddress(address)": "00e6be7b",
			"useHelper()": "2f3f470a",
			"withdraw()": "3ccfd60b"
		}
	},
	"abi": [
		{
			"inputs": [
				{
					"internalType": "address",
					"name": "_TAZOR",
					"type": "address"
				},
				{
					"internalType": "address",
					"name": "_principle",
					"type": "address"
				},
				{
					"internalType": "address",
					"name": "_treasury",
					"type": "address"
				},
				{
					"internalType": "address",
					"name": "_DAO",
					"type": "address"
				},
				{
					"internalType": "address",
					"name": "_bondCalculator",
					"type": "address"
				},
				{
					"internalType": "address",
					"name": "_authority",
					"type": "address"
				}
			],
			"stateMutability": "nonpayable",
			"type": "constructor"
		},
		{
			"anonymous": false,
			"inputs": [
				{
					"indexed": true,
					"internalType": "contract ITazorAuthority",
					"name": "authority",
					"type": "address"
				}
			],
			"name": "AuthorityUpdated",
			"type": "event"
		},
		{
			"anonymous": false,
			"inputs": [
				{
					"indexed": false,
					"internalType": "uint256",
					"name": "deposit",
					"type": "uint256"
				},
				{
					"indexed": true,
					"internalType": "uint256",
					"name": "payout",
					"type": "uint256"
				},
				{
					"indexed": true,
					"internalType": "uint256",
					"name": "expires",
					"type": "uint256"
				},
				{
					"indexed": true,
					"internalType": "uint256",
					"name": "priceInUSD",
					"type": "uint256"
				}
			],
			"name": "BondCreated",
			"type": "event"
		},
		{
			"anonymous": false,
			"inputs": [
				{
					"indexed": true,
					"internalType": "uint256",
					"name": "priceInUSD",
					"type": "uint256"
				},
				{
					"indexed": true,
					"internalType": "uint256",
					"name": "internalPrice",
					"type": "uint256"
				},
				{
					"indexed": true,
					"internalType": "uint256",
					"name": "debtRatio",
					"type": "uint256"
				}
			],
			"name": "BondPriceChanged",
			"type": "event"
		},
		{
			"anonymous": false,
			"inputs": [
				{
					"indexed": true,
					"internalType": "address",
					"name": "recipient",
					"type": "address"
				},
				{
					"indexed": false,
					"internalType": "uint256",
					"name": "payout",
					"type": "uint256"
				},
				{
					"indexed": false,
					"internalType": "uint256",
					"name": "remaining",
					"type": "uint256"
				}
			],
			"name": "BondRedeemed",
			"type": "event"
		},
		{
			"anonymous": false,
			"inputs": [
				{
					"indexed": false,
					"internalType": "uint256",
					"name": "initialBCV",
					"type": "uint256"
				},
				{
					"indexed": false,
					"internalType": "uint256",
					"name": "newBCV",
					"type": "uint256"
				},
				{
					"indexed": false,
					"internalType": "uint256",
					"name": "adjustment",
					"type": "uint256"
				},
				{
					"indexed": false,
					"internalType": "bool",
					"name": "addition",
					"type": "bool"
				}
			],
			"name": "ControlVariableAdjustment",
			"type": "event"
		},
		{
			"anonymous": false,
			"inputs": [
				{
					"indexed": true,
					"internalType": "address",
					"name": "previousOwner",
					"type": "address"
				},
				{
					"indexed": true,
					"internalType": "address",
					"name": "newOwner",
					"type": "address"
				}
			],
			"name": "OwnershipPulled",
			"type": "event"
		},
		{
			"anonymous": false,
			"inputs": [
				{
					"indexed": true,
					"internalType": "address",
					"name": "previousOwner",
					"type": "address"
				},
				{
					"indexed": true,
					"internalType": "address",
					"name": "newOwner",
					"type": "address"
				}
			],
			"name": "OwnershipPushed",
			"type": "event"
		},
		{
			"inputs": [],
			"name": "DAI",
			"outputs": [
				{
					"internalType": "address",
					"name": "",
					"type": "address"
				}
			],
			"stateMutability": "view",
			"type": "function"
		},
		{
			"inputs": [],
			"name": "DAO",
			"outputs": [
				{
					"internalType": "address",
					"name": "",
					"type": "address"
				}
			],
			"stateMutability": "view",
			"type": "function"
		},
		{
			"inputs": [],
			"name": "TAZOR",
			"outputs": [
				{
					"internalType": "address",
					"name": "",
					"type": "address"
				}
			],
			"stateMutability": "view",
			"type": "function"
		},
		{
			"inputs": [],
			"name": "adjustment",
			"outputs": [
				{
					"internalType": "bool",
					"name": "add",
					"type": "bool"
				},
				{
					"internalType": "uint256",
					"name": "rate",
					"type": "uint256"
				},
				{
					"internalType": "uint256",
					"name": "target",
					"type": "uint256"
				},
				{
					"internalType": "uint256",
					"name": "buffer",
					"type": "uint256"
				},
				{
					"internalType": "uint256",
					"name": "lastBlock",
					"type": "uint256"
				}
			],
			"stateMutability": "view",
			"type": "function"
		},
		{
			"inputs": [],
			"name": "authority",
			"outputs": [
				{
					"internalType": "contract ITazorAuthority",
					"name": "",
					"type": "address"
				}
			],
			"stateMutability": "view",
			"type": "function"
		},
		{
			"inputs": [],
			"name": "bondCalculator",
			"outputs": [
				{
					"internalType": "address",
					"name": "",
					"type": "address"
				}
			],
			"stateMutability": "view",
			"type": "function"
		},
		{
			"inputs": [
				{
					"internalType": "address",
					"name": "",
					"type": "address"
				}
			],
			"name": "bondInfo",
			"outputs": [
				{
					"internalType": "uint256",
					"name": "payout",
					"type": "uint256"
				},
				{
					"internalType": "uint256",
					"name": "vesting",
					"type": "uint256"
				},
				{
					"internalType": "uint256",
					"name": "lastBlock",
					"type": "uint256"
				},
				{
					"internalType": "uint256",
					"name": "pricePaid",
					"type": "uint256"
				}
			],
			"stateMutability": "view",
			"type": "function"
		},
		{
			"inputs": [],
			"name": "bondPrice",
			"outputs": [
				{
					"internalType": "uint256",
					"name": "",
					"type": "uint256"
				}
			],
			"stateMutability": "view",
			"type": "function"
		},
		{
			"inputs": [],
			"name": "bondPriceInUSD",
			"outputs": [
				{
					"internalType": "uint256",
					"name": "price_",
					"type": "uint256"
				}
			],
			"stateMutability": "view",
			"type": "function"
		},
		{
			"inputs": [],
			"name": "bondPurchased",
			"outputs": [
				{
					"internalType": "uint256",
					"name": "",
					"type": "uint256"
				}
			],
			"stateMutability": "view",
			"type": "function"
		},
		{
			"inputs": [],
			"name": "bondTermVal",
			"outputs": [
				{
					"internalType": "uint256",
					"name": "",
					"type": "uint256"
				}
			],
			"stateMutability": "view",
			"type": "function"
		},
		{
			"inputs": [],
			"name": "bondpriceRatio",
			"outputs": [
				{
					"internalType": "uint256",
					"name": "",
					"type": "uint256"
				}
			],
			"stateMutability": "view",
			"type": "function"
		},
		{
			"inputs": [],
			"name": "controlVariableVal",
			"outputs": [
				{
					"internalType": "uint256",
					"name": "",
					"type": "uint256"
				}
			],
			"stateMutability": "view",
			"type": "function"
		},
		{
			"inputs": [],
			"name": "currentDebt",
			"outputs": [
				{
					"internalType": "uint256",
					"name": "",
					"type": "uint256"
				}
			],
			"stateMutability": "view",
			"type": "function"
		},
		{
			"inputs": [],
			"name": "debtDecay",
			"outputs": [
				{
					"internalType": "uint256",
					"name": "decay_",
					"type": "uint256"
				}
			],
			"stateMutability": "view",
			"type": "function"
		},
		{
			"inputs": [],
			"name": "debtRatio",
			"outputs": [
				{
					"internalType": "uint256",
					"name": "debtRatio_",
					"type": "uint256"
				}
			],
			"stateMutability": "view",
			"type": "function"
		},
		{
			"inputs": [
				{
					"internalType": "uint256",
					"name": "_amount",
					"type": "uint256"
				},
				{
					"internalType": "address",
					"name": "_depositor",
					"type": "address"
				}
			],
			"name": "deposit",
			"outputs": [
				{
					"internalType": "uint256",
					"name": "",
					"type": "uint256"
				}
			],
			"stateMutability": "payable",
			"type": "function"
		},
		{
			"inputs": [],
			"name": "feeVal",
			"outputs": [
				{
					"internalType": "uint256",
					"name": "",
					"type": "uint256"
				}
			],
			"stateMutability": "view",
			"type": "function"
		},
		{
			"inputs": [
				{
					"internalType": "uint256",
					"name": "_minimumPrice",
					"type": "uint256"
				},
				{
					"internalType": "uint256",
					"name": "_maxPayout",
					"type": "uint256"
				},
				{
					"internalType": "uint256",
					"name": "_maxDebt",
					"type": "uint256"
				},
				{
					"internalType": "uint256",
					"name": "_initialDebt",
					"type": "uint256"
				}
			],
			"name": "initializeBondTerms",
			"outputs": [],
			"stateMutability": "nonpayable",
			"type": "function"
		},
		{
			"inputs": [],
			"name": "isLiquidityBond",
			"outputs": [
				{
					"internalType": "bool",
					"name": "",
					"type": "bool"
				}
			],
			"stateMutability": "view",
			"type": "function"
		},
		{
			"inputs": [],
			"name": "lastDecay",
			"outputs": [
				{
					"internalType": "uint256",
					"name": "",
					"type": "uint256"
				}
			],
			"stateMutability": "view",
			"type": "function"
		},
		{
			"inputs": [],
			"name": "maxPayout",
			"outputs": [
				{
					"internalType": "uint256",
					"name": "",
					"type": "uint256"
				}
			],
			"stateMutability": "view",
			"type": "function"
		},
		{
			"inputs": [
				{
					"internalType": "uint256",
					"name": "_value",
					"type": "uint256"
				}
			],
			"name": "payoutFor",
			"outputs": [
				{
					"internalType": "uint256",
					"name": "",
					"type": "uint256"
				}
			],
			"stateMutability": "view",
			"type": "function"
		},
		{
			"inputs": [
				{
					"internalType": "address",
					"name": "_depositor",
					"type": "address"
				}
			],
			"name": "pendingPayoutFor",
			"outputs": [
				{
					"internalType": "uint256",
					"name": "pendingPayout_",
					"type": "uint256"
				}
			],
			"stateMutability": "view",
			"type": "function"
		},
		{
			"inputs": [
				{
					"internalType": "address",
					"name": "_depositor",
					"type": "address"
				}
			],
			"name": "percentVestedFor",
			"outputs": [
				{
					"internalType": "uint256",
					"name": "percentVested_",
					"type": "uint256"
				}
			],
			"stateMutability": "view",
			"type": "function"
		},
		{
			"inputs": [],
			"name": "policy",
			"outputs": [
				{
					"internalType": "address",
					"name": "",
					"type": "address"
				}
			],
			"stateMutability": "view",
			"type": "function"
		},
		{
			"inputs": [],
			"name": "principle",
			"outputs": [
				{
					"internalType": "address",
					"name": "",
					"type": "address"
				}
			],
			"stateMutability": "view",
			"type": "function"
		},
		{
			"inputs": [],
			"name": "pullManagement",
			"outputs": [],
			"stateMutability": "nonpayable",
			"type": "function"
		},
		{
			"inputs": [
				{
					"internalType": "address",
					"name": "newOwner_",
					"type": "address"
				}
			],
			"name": "pushManagement",
			"outputs": [],
			"stateMutability": "nonpayable",
			"type": "function"
		},
		{
			"inputs": [
				{
					"internalType": "address",
					"name": "_token",
					"type": "address"
				}
			],
			"name": "recoverLostToken",
			"outputs": [
				{
					"internalType": "bool",
					"name": "",
					"type": "bool"
				}
			],
			"stateMutability": "nonpayable",
			"type": "function"
		},
		{
			"inputs": [
				{
					"internalType": "address",
					"name": "_recipient",
					"type": "address"
				},
				{
					"internalType": "bool",
					"name": "_stake",
					"type": "bool"
				}
			],
			"name": "redeem",
			"outputs": [
				{
					"internalType": "uint256",
					"name": "",
					"type": "uint256"
				}
			],
			"stateMutability": "payable",
			"type": "function"
		},
		{
			"inputs": [],
			"name": "renounceManagement",
			"outputs": [],
			"stateMutability": "nonpayable",
			"type": "function"
		},
		{
			"inputs": [],
			"name": "routerAddress",
			"outputs": [
				{
					"internalType": "address",
					"name": "",
					"type": "address"
				}
			],
			"stateMutability": "view",
			"type": "function"
		},
		{
			"inputs": [
				{
					"internalType": "bool",
					"name": "_addition",
					"type": "bool"
				},
				{
					"internalType": "uint256",
					"name": "_increment",
					"type": "uint256"
				},
				{
					"internalType": "uint256",
					"name": "_target",
					"type": "uint256"
				},
				{
					"internalType": "uint256",
					"name": "_buffer",
					"type": "uint256"
				}
			],
			"name": "setAdjustment",
			"outputs": [],
			"stateMutability": "nonpayable",
			"type": "function"
		},
		{
			"inputs": [
				{
					"internalType": "contract ITazorAuthority",
					"name": "_newAuthority",
					"type": "address"
				}
			],
			"name": "setAuthority",
			"outputs": [],
			"stateMutability": "nonpayable",
			"type": "function"
		},
		{
			"inputs": [
				{
					"internalType": "enum USDTBondDepository.PARAMETER",
					"name": "_parameter",
					"type": "uint8"
				},
				{
					"internalType": "uint256",
					"name": "_input",
					"type": "uint256"
				}
			],
			"name": "setBondTerms",
			"outputs": [],
			"stateMutability": "nonpayable",
			"type": "function"
		},
		{
			"inputs": [
				{
					"internalType": "address",
					"name": "_addr",
					"type": "address"
				}
			],
			"name": "setFeeWalletAddress",
			"outputs": [],
			"stateMutability": "nonpayable",
			"type": "function"
		},
		{
			"inputs": [
				{
					"internalType": "address",
					"name": "_staking",
					"type": "address"
				},
				{
					"internalType": "bool",
					"name": "_helper",
					"type": "bool"
				}
			],
			"name": "setStaking",
			"outputs": [],
			"stateMutability": "nonpayable",
			"type": "function"
		},
		{
			"inputs": [
				{
					"internalType": "uint256",
					"name": "_newDebt",
					"type": "uint256"
				}
			],
			"name": "setTotalDebt",
			"outputs": [],
			"stateMutability": "nonpayable",
			"type": "function"
		},
		{
			"inputs": [
				{
					"internalType": "uint256",
					"name": "ratio",
					"type": "uint256"
				}
			],
			"name": "setbondPriceRatio",
			"outputs": [],
			"stateMutability": "nonpayable",
			"type": "function"
		},
		{
			"inputs": [],
			"name": "staking",
			"outputs": [
				{
					"internalType": "address",
					"name": "",
					"type": "address"
				}
			],
			"stateMutability": "view",
			"type": "function"
		},
		{
			"inputs": [],
			"name": "stakingHelper",
			"outputs": [
				{
					"internalType": "address",
					"name": "",
					"type": "address"
				}
			],
			"stateMutability": "view",
			"type": "function"
		},
		{
			"inputs": [],
			"name": "standardizedDebtRatio",
			"outputs": [
				{
					"internalType": "uint256",
					"name": "",
					"type": "uint256"
				}
			],
			"stateMutability": "view",
			"type": "function"
		},
		{
			"inputs": [],
			"name": "terms",
			"outputs": [
				{
					"internalType": "uint256",
					"name": "controlVariable",
					"type": "uint256"
				},
				{
					"internalType": "uint256",
					"name": "vestingTerm",
					"type": "uint256"
				},
				{
					"internalType": "uint256",
					"name": "minimumPrice",
					"type": "uint256"
				},
				{
					"internalType": "uint256",
					"name": "maxPayout",
					"type": "uint256"
				},
				{
					"internalType": "uint256",
					"name": "fee",
					"type": "uint256"
				},
				{
					"internalType": "uint256",
					"name": "maxDebt",
					"type": "uint256"
				}
			],
			"stateMutability": "view",
			"type": "function"
		},
		{
			"inputs": [],
			"name": "totalDebt",
			"outputs": [
				{
					"internalType": "uint256",
					"name": "",
					"type": "uint256"
				}
			],
			"stateMutability": "view",
			"type": "function"
		},
		{
			"inputs": [],
			"name": "treasury",
			"outputs": [
				{
					"internalType": "address",
					"name": "",
					"type": "address"
				}
			],
			"stateMutability": "view",
			"type": "function"
		},
		{
			"inputs": [],
			"name": "uniswapV2Router",
			"outputs": [
				{
					"internalType": "contract IUniswapV2Router02",
					"name": "",
					"type": "address"
				}
			],
			"stateMutability": "view",
			"type": "function"
		},
		{
			"inputs": [
				{
					"internalType": "address",
					"name": "_routerAddress",
					"type": "address"
				}
			],
			"name": "updateRouterAddress",
			"outputs": [],
			"stateMutability": "nonpayable",
			"type": "function"
		},
		{
			"inputs": [],
			"name": "useHelper",
			"outputs": [
				{
					"internalType": "bool",
					"name": "",
					"type": "bool"
				}
			],
			"stateMutability": "view",
			"type": "function"
		},
		{
			"inputs": [],
			"name": "withdraw",
			"outputs": [],
			"stateMutability": "nonpayable",
			"type": "function"
		}
	]
}